{
  "address": "0xdcc33871cB32df9d5b294AdD3736ac55C551D37e",
  "abi": [
    {
      "anonymous": false,
      "inputs": [
        {
          "indexed": false,
          "internalType": "string",
          "name": "dealId",
          "type": "string"
        },
        {
          "indexed": false,
          "internalType": "enum SharedStructs.AgreementState",
          "name": "state",
          "type": "uint8"
        }
      ],
      "name": "DealStateChange",
      "type": "event"
    },
    {
      "anonymous": false,
      "inputs": [
        {
          "indexed": false,
          "internalType": "uint8",
          "name": "version",
          "type": "uint8"
        }
      ],
      "name": "Initialized",
      "type": "event"
    },
    {
      "anonymous": false,
      "inputs": [
        {
          "indexed": true,
          "internalType": "address",
          "name": "previousOwner",
          "type": "address"
        },
        {
          "indexed": true,
          "internalType": "address",
          "name": "newOwner",
          "type": "address"
        }
      ],
      "name": "OwnershipTransferred",
      "type": "event"
    },
    {
      "inputs": [
        {
          "internalType": "string",
          "name": "dealId",
          "type": "string"
        }
      ],
      "name": "acceptResult",
      "outputs": [],
      "stateMutability": "nonpayable",
      "type": "function"
    },
    {
      "inputs": [
        {
          "internalType": "string",
          "name": "dealId",
          "type": "string"
        },
        {
          "internalType": "string",
          "name": "resultsId",
          "type": "string"
        },
        {
          "internalType": "string",
          "name": "dataId",
          "type": "string"
        },
        {
          "internalType": "uint256",
          "name": "instructionCount",
          "type": "uint256"
        }
      ],
      "name": "addResult",
      "outputs": [
        {
          "components": [
            {
              "internalType": "string",
              "name": "dealId",
              "type": "string"
            },
            {
              "internalType": "string",
              "name": "resultsId",
              "type": "string"
            },
            {
              "internalType": "string",
              "name": "dataId",
              "type": "string"
            },
            {
              "internalType": "uint256",
              "name": "instructionCount",
              "type": "uint256"
            }
          ],
          "internalType": "struct SharedStructs.Result",
          "name": "",
          "type": "tuple"
        }
      ],
      "stateMutability": "nonpayable",
      "type": "function"
    },
    {
      "inputs": [
        {
          "internalType": "string",
          "name": "dealId",
          "type": "string"
        }
      ],
      "name": "agreeJobCreator",
      "outputs": [
        {
          "components": [
            {
              "internalType": "enum SharedStructs.AgreementState",
              "name": "state",
              "type": "uint8"
            },
            {
              "internalType": "uint256",
              "name": "resourceProviderAgreedAt",
              "type": "uint256"
            },
            {
              "internalType": "uint256",
              "name": "jobCreatorAgreedAt",
              "type": "uint256"
            },
            {
              "internalType": "uint256",
              "name": "dealCreatedAt",
              "type": "uint256"
            },
            {
              "internalType": "uint256",
              "name": "dealAgreedAt",
              "type": "uint256"
            },
            {
              "internalType": "uint256",
              "name": "resultsSubmittedAt",
              "type": "uint256"
            },
            {
              "internalType": "uint256",
              "name": "resultsAcceptedAt",
              "type": "uint256"
            },
            {
              "internalType": "uint256",
              "name": "resultsCheckedAt",
              "type": "uint256"
            },
            {
              "internalType": "uint256",
              "name": "mediationAcceptedAt",
              "type": "uint256"
            },
            {
              "internalType": "uint256",
              "name": "mediationRejectedAt",
              "type": "uint256"
            },
            {
              "internalType": "uint256",
              "name": "timeoutAgreeAt",
              "type": "uint256"
            },
            {
              "internalType": "uint256",
              "name": "timeoutSubmitResultsAt",
              "type": "uint256"
            },
            {
              "internalType": "uint256",
              "name": "timeoutJudgeResultsAt",
              "type": "uint256"
            },
            {
              "internalType": "uint256",
              "name": "timeoutMediateResultsAt",
              "type": "uint256"
            }
          ],
          "internalType": "struct SharedStructs.Agreement",
          "name": "",
          "type": "tuple"
        }
      ],
      "stateMutability": "nonpayable",
      "type": "function"
    },
    {
      "inputs": [
        {
          "internalType": "string",
          "name": "dealId",
          "type": "string"
        }
      ],
      "name": "agreeResourceProvider",
      "outputs": [
        {
          "components": [
            {
              "internalType": "enum SharedStructs.AgreementState",
              "name": "state",
              "type": "uint8"
            },
            {
              "internalType": "uint256",
              "name": "resourceProviderAgreedAt",
              "type": "uint256"
            },
            {
              "internalType": "uint256",
              "name": "jobCreatorAgreedAt",
              "type": "uint256"
            },
            {
              "internalType": "uint256",
              "name": "dealCreatedAt",
              "type": "uint256"
            },
            {
              "internalType": "uint256",
              "name": "dealAgreedAt",
              "type": "uint256"
            },
            {
              "internalType": "uint256",
              "name": "resultsSubmittedAt",
              "type": "uint256"
            },
            {
              "internalType": "uint256",
              "name": "resultsAcceptedAt",
              "type": "uint256"
            },
            {
              "internalType": "uint256",
              "name": "resultsCheckedAt",
              "type": "uint256"
            },
            {
              "internalType": "uint256",
              "name": "mediationAcceptedAt",
              "type": "uint256"
            },
            {
              "internalType": "uint256",
              "name": "mediationRejectedAt",
              "type": "uint256"
            },
            {
              "internalType": "uint256",
              "name": "timeoutAgreeAt",
              "type": "uint256"
            },
            {
              "internalType": "uint256",
              "name": "timeoutSubmitResultsAt",
              "type": "uint256"
            },
            {
              "internalType": "uint256",
              "name": "timeoutJudgeResultsAt",
              "type": "uint256"
            },
            {
              "internalType": "uint256",
              "name": "timeoutMediateResultsAt",
              "type": "uint256"
            }
          ],
          "internalType": "struct SharedStructs.Agreement",
          "name": "",
          "type": "tuple"
        }
      ],
      "stateMutability": "nonpayable",
      "type": "function"
    },
    {
      "inputs": [
        {
          "internalType": "string",
          "name": "dealId",
          "type": "string"
        }
      ],
      "name": "checkResult",
      "outputs": [],
      "stateMutability": "nonpayable",
      "type": "function"
    },
    {
      "inputs": [],
      "name": "disableChangeControllerAddress",
      "outputs": [],
      "stateMutability": "nonpayable",
      "type": "function"
    },
    {
      "inputs": [
        {
          "internalType": "string",
          "name": "dealId",
          "type": "string"
        },
        {
          "components": [
            {
              "internalType": "address",
              "name": "solver",
              "type": "address"
            },
            {
              "internalType": "address",
              "name": "jobCreator",
              "type": "address"
            },
            {
              "internalType": "address",
              "name": "resourceProvider",
              "type": "address"
            },
            {
              "internalType": "address[]",
              "name": "mediators",
              "type": "address[]"
            }
          ],
          "internalType": "struct SharedStructs.DealMembers",
          "name": "members",
          "type": "tuple"
        },
        {
          "components": [
            {
              "components": [
                {
                  "internalType": "uint256",
                  "name": "timeout",
                  "type": "uint256"
                },
                {
                  "internalType": "uint256",
                  "name": "collateral",
                  "type": "uint256"
                }
              ],
              "internalType": "struct SharedStructs.DealTimeout",
              "name": "agree",
              "type": "tuple"
            },
            {
              "components": [
                {
                  "internalType": "uint256",
                  "name": "timeout",
                  "type": "uint256"
                },
                {
                  "internalType": "uint256",
                  "name": "collateral",
                  "type": "uint256"
                }
              ],
              "internalType": "struct SharedStructs.DealTimeout",
              "name": "submitResults",
              "type": "tuple"
            },
            {
              "components": [
                {
                  "internalType": "uint256",
                  "name": "timeout",
                  "type": "uint256"
                },
                {
                  "internalType": "uint256",
                  "name": "collateral",
                  "type": "uint256"
                }
              ],
              "internalType": "struct SharedStructs.DealTimeout",
              "name": "judgeResults",
              "type": "tuple"
            },
            {
              "components": [
                {
                  "internalType": "uint256",
                  "name": "timeout",
                  "type": "uint256"
                },
                {
                  "internalType": "uint256",
                  "name": "collateral",
                  "type": "uint256"
                }
              ],
              "internalType": "struct SharedStructs.DealTimeout",
              "name": "mediateResults",
              "type": "tuple"
            }
          ],
          "internalType": "struct SharedStructs.DealTimeouts",
          "name": "timeouts",
          "type": "tuple"
        },
        {
          "components": [
            {
              "internalType": "uint256",
              "name": "instructionPrice",
              "type": "uint256"
            },
            {
              "internalType": "uint256",
              "name": "paymentCollateral",
              "type": "uint256"
            },
            {
              "internalType": "uint256",
              "name": "resultsCollateralMultiple",
              "type": "uint256"
            },
            {
              "internalType": "uint256",
              "name": "mediationFee",
              "type": "uint256"
            }
          ],
          "internalType": "struct SharedStructs.DealPricing",
          "name": "pricing",
          "type": "tuple"
        }
      ],
      "name": "ensureDeal",
      "outputs": [
        {
          "components": [
            {
              "internalType": "string",
              "name": "dealId",
              "type": "string"
            },
            {
              "components": [
                {
                  "internalType": "address",
                  "name": "solver",
                  "type": "address"
                },
                {
                  "internalType": "address",
                  "name": "jobCreator",
                  "type": "address"
                },
                {
                  "internalType": "address",
                  "name": "resourceProvider",
                  "type": "address"
                },
                {
                  "internalType": "address[]",
                  "name": "mediators",
                  "type": "address[]"
                }
              ],
              "internalType": "struct SharedStructs.DealMembers",
              "name": "members",
              "type": "tuple"
            },
            {
              "components": [
                {
                  "components": [
                    {
                      "internalType": "uint256",
                      "name": "timeout",
                      "type": "uint256"
                    },
                    {
                      "internalType": "uint256",
                      "name": "collateral",
                      "type": "uint256"
                    }
                  ],
                  "internalType": "struct SharedStructs.DealTimeout",
                  "name": "agree",
                  "type": "tuple"
                },
                {
                  "components": [
                    {
                      "internalType": "uint256",
                      "name": "timeout",
                      "type": "uint256"
                    },
                    {
                      "internalType": "uint256",
                      "name": "collateral",
                      "type": "uint256"
                    }
                  ],
                  "internalType": "struct SharedStructs.DealTimeout",
                  "name": "submitResults",
                  "type": "tuple"
                },
                {
                  "components": [
                    {
                      "internalType": "uint256",
                      "name": "timeout",
                      "type": "uint256"
                    },
                    {
                      "internalType": "uint256",
                      "name": "collateral",
                      "type": "uint256"
                    }
                  ],
                  "internalType": "struct SharedStructs.DealTimeout",
                  "name": "judgeResults",
                  "type": "tuple"
                },
                {
                  "components": [
                    {
                      "internalType": "uint256",
                      "name": "timeout",
                      "type": "uint256"
                    },
                    {
                      "internalType": "uint256",
                      "name": "collateral",
                      "type": "uint256"
                    }
                  ],
                  "internalType": "struct SharedStructs.DealTimeout",
                  "name": "mediateResults",
                  "type": "tuple"
                }
              ],
              "internalType": "struct SharedStructs.DealTimeouts",
              "name": "timeouts",
              "type": "tuple"
            },
            {
              "components": [
                {
                  "internalType": "uint256",
                  "name": "instructionPrice",
                  "type": "uint256"
                },
                {
                  "internalType": "uint256",
                  "name": "paymentCollateral",
                  "type": "uint256"
                },
                {
                  "internalType": "uint256",
                  "name": "resultsCollateralMultiple",
                  "type": "uint256"
                },
                {
                  "internalType": "uint256",
                  "name": "mediationFee",
                  "type": "uint256"
                }
              ],
              "internalType": "struct SharedStructs.DealPricing",
              "name": "pricing",
              "type": "tuple"
            }
          ],
          "internalType": "struct SharedStructs.Deal",
          "name": "",
          "type": "tuple"
        }
      ],
      "stateMutability": "nonpayable",
      "type": "function"
    },
    {
      "inputs": [
        {
          "internalType": "string",
          "name": "dealId",
          "type": "string"
        }
      ],
      "name": "getAgreement",
      "outputs": [
        {
          "components": [
            {
              "internalType": "enum SharedStructs.AgreementState",
              "name": "state",
              "type": "uint8"
            },
            {
              "internalType": "uint256",
              "name": "resourceProviderAgreedAt",
              "type": "uint256"
            },
            {
              "internalType": "uint256",
              "name": "jobCreatorAgreedAt",
              "type": "uint256"
            },
            {
              "internalType": "uint256",
              "name": "dealCreatedAt",
              "type": "uint256"
            },
            {
              "internalType": "uint256",
              "name": "dealAgreedAt",
              "type": "uint256"
            },
            {
              "internalType": "uint256",
              "name": "resultsSubmittedAt",
              "type": "uint256"
            },
            {
              "internalType": "uint256",
              "name": "resultsAcceptedAt",
              "type": "uint256"
            },
            {
              "internalType": "uint256",
              "name": "resultsCheckedAt",
              "type": "uint256"
            },
            {
              "internalType": "uint256",
              "name": "mediationAcceptedAt",
              "type": "uint256"
            },
            {
              "internalType": "uint256",
              "name": "mediationRejectedAt",
              "type": "uint256"
            },
            {
              "internalType": "uint256",
              "name": "timeoutAgreeAt",
              "type": "uint256"
            },
            {
              "internalType": "uint256",
              "name": "timeoutSubmitResultsAt",
              "type": "uint256"
            },
            {
              "internalType": "uint256",
              "name": "timeoutJudgeResultsAt",
              "type": "uint256"
            },
            {
              "internalType": "uint256",
              "name": "timeoutMediateResultsAt",
              "type": "uint256"
            }
          ],
          "internalType": "struct SharedStructs.Agreement",
          "name": "",
          "type": "tuple"
        }
      ],
      "stateMutability": "view",
      "type": "function"
    },
    {
      "inputs": [],
      "name": "getControllerAddress",
      "outputs": [
        {
          "internalType": "address",
          "name": "",
          "type": "address"
        }
      ],
      "stateMutability": "view",
      "type": "function"
    },
    {
      "inputs": [
        {
          "internalType": "string",
          "name": "dealId",
          "type": "string"
        }
      ],
      "name": "getDeal",
      "outputs": [
        {
          "components": [
            {
              "internalType": "string",
              "name": "dealId",
              "type": "string"
            },
            {
              "components": [
                {
                  "internalType": "address",
                  "name": "solver",
                  "type": "address"
                },
                {
                  "internalType": "address",
                  "name": "jobCreator",
                  "type": "address"
                },
                {
                  "internalType": "address",
                  "name": "resourceProvider",
                  "type": "address"
                },
                {
                  "internalType": "address[]",
                  "name": "mediators",
                  "type": "address[]"
                }
              ],
              "internalType": "struct SharedStructs.DealMembers",
              "name": "members",
              "type": "tuple"
            },
            {
              "components": [
                {
                  "components": [
                    {
                      "internalType": "uint256",
                      "name": "timeout",
                      "type": "uint256"
                    },
                    {
                      "internalType": "uint256",
                      "name": "collateral",
                      "type": "uint256"
                    }
                  ],
                  "internalType": "struct SharedStructs.DealTimeout",
                  "name": "agree",
                  "type": "tuple"
                },
                {
                  "components": [
                    {
                      "internalType": "uint256",
                      "name": "timeout",
                      "type": "uint256"
                    },
                    {
                      "internalType": "uint256",
                      "name": "collateral",
                      "type": "uint256"
                    }
                  ],
                  "internalType": "struct SharedStructs.DealTimeout",
                  "name": "submitResults",
                  "type": "tuple"
                },
                {
                  "components": [
                    {
                      "internalType": "uint256",
                      "name": "timeout",
                      "type": "uint256"
                    },
                    {
                      "internalType": "uint256",
                      "name": "collateral",
                      "type": "uint256"
                    }
                  ],
                  "internalType": "struct SharedStructs.DealTimeout",
                  "name": "judgeResults",
                  "type": "tuple"
                },
                {
                  "components": [
                    {
                      "internalType": "uint256",
                      "name": "timeout",
                      "type": "uint256"
                    },
                    {
                      "internalType": "uint256",
                      "name": "collateral",
                      "type": "uint256"
                    }
                  ],
                  "internalType": "struct SharedStructs.DealTimeout",
                  "name": "mediateResults",
                  "type": "tuple"
                }
              ],
              "internalType": "struct SharedStructs.DealTimeouts",
              "name": "timeouts",
              "type": "tuple"
            },
            {
              "components": [
                {
                  "internalType": "uint256",
                  "name": "instructionPrice",
                  "type": "uint256"
                },
                {
                  "internalType": "uint256",
                  "name": "paymentCollateral",
                  "type": "uint256"
                },
                {
                  "internalType": "uint256",
                  "name": "resultsCollateralMultiple",
                  "type": "uint256"
                },
                {
                  "internalType": "uint256",
                  "name": "mediationFee",
                  "type": "uint256"
                }
              ],
              "internalType": "struct SharedStructs.DealPricing",
              "name": "pricing",
              "type": "tuple"
            }
          ],
          "internalType": "struct SharedStructs.Deal",
          "name": "",
          "type": "tuple"
        }
      ],
      "stateMutability": "view",
      "type": "function"
    },
    {
      "inputs": [
        {
          "internalType": "address",
          "name": "party",
          "type": "address"
        }
      ],
      "name": "getDealsForParty",
      "outputs": [
        {
          "internalType": "string[]",
          "name": "",
          "type": "string[]"
        }
      ],
      "stateMutability": "view",
      "type": "function"
    },
    {
      "inputs": [
        {
          "internalType": "string",
          "name": "dealId",
          "type": "string"
        }
      ],
      "name": "getJobCost",
      "outputs": [
        {
          "internalType": "uint256",
          "name": "",
          "type": "uint256"
        }
      ],
      "stateMutability": "view",
      "type": "function"
    },
    {
      "inputs": [
        {
          "internalType": "string",
          "name": "dealId",
          "type": "string"
        }
      ],
      "name": "getResult",
      "outputs": [
        {
          "components": [
            {
              "internalType": "string",
              "name": "dealId",
              "type": "string"
            },
            {
              "internalType": "string",
              "name": "resultsId",
              "type": "string"
            },
            {
              "internalType": "string",
              "name": "dataId",
              "type": "string"
            },
            {
              "internalType": "uint256",
              "name": "instructionCount",
              "type": "uint256"
            }
          ],
          "internalType": "struct SharedStructs.Result",
          "name": "",
          "type": "tuple"
        }
      ],
      "stateMutability": "view",
      "type": "function"
    },
    {
      "inputs": [
        {
          "internalType": "string",
          "name": "dealId",
          "type": "string"
        }
      ],
      "name": "getResultsCollateral",
      "outputs": [
        {
          "internalType": "uint256",
          "name": "",
          "type": "uint256"
        }
      ],
      "stateMutability": "view",
      "type": "function"
    },
    {
      "inputs": [
        {
          "internalType": "string",
          "name": "dealId",
          "type": "string"
        }
      ],
      "name": "hasDeal",
      "outputs": [
        {
          "internalType": "bool",
          "name": "",
          "type": "bool"
        }
      ],
      "stateMutability": "view",
      "type": "function"
    },
    {
      "inputs": [],
      "name": "initialize",
      "outputs": [],
      "stateMutability": "nonpayable",
      "type": "function"
    },
    {
      "inputs": [
        {
          "internalType": "string",
          "name": "dealId",
          "type": "string"
        },
        {
          "internalType": "enum SharedStructs.AgreementState",
          "name": "state",
          "type": "uint8"
        }
      ],
      "name": "isState",
      "outputs": [
        {
          "internalType": "bool",
          "name": "",
          "type": "bool"
        }
      ],
      "stateMutability": "view",
      "type": "function"
    },
    {
      "inputs": [
        {
          "internalType": "string",
          "name": "dealId",
          "type": "string"
        }
      ],
      "name": "mediationAcceptResult",
      "outputs": [],
      "stateMutability": "nonpayable",
      "type": "function"
    },
    {
      "inputs": [
        {
          "internalType": "string",
          "name": "dealId",
          "type": "string"
        }
      ],
      "name": "mediationRejectResult",
      "outputs": [],
      "stateMutability": "nonpayable",
      "type": "function"
    },
    {
      "inputs": [],
      "name": "owner",
      "outputs": [
        {
          "internalType": "address",
          "name": "",
          "type": "address"
        }
      ],
      "stateMutability": "view",
      "type": "function"
    },
    {
      "inputs": [],
      "name": "renounceOwnership",
      "outputs": [],
      "stateMutability": "nonpayable",
      "type": "function"
    },
    {
      "inputs": [
        {
          "internalType": "address",
          "name": "_controllerAddress",
          "type": "address"
        }
      ],
      "name": "setControllerAddress",
      "outputs": [],
      "stateMutability": "nonpayable",
      "type": "function"
    },
    {
      "inputs": [
        {
          "internalType": "string",
          "name": "dealId",
          "type": "string"
        }
      ],
      "name": "timeoutAgree",
      "outputs": [],
      "stateMutability": "nonpayable",
      "type": "function"
    },
    {
      "inputs": [
        {
          "internalType": "string",
          "name": "dealId",
          "type": "string"
        }
      ],
      "name": "timeoutJudgeResult",
      "outputs": [],
      "stateMutability": "nonpayable",
      "type": "function"
    },
    {
      "inputs": [
        {
          "internalType": "string",
          "name": "dealId",
          "type": "string"
        }
      ],
      "name": "timeoutMediateResult",
      "outputs": [],
      "stateMutability": "nonpayable",
      "type": "function"
    },
    {
      "inputs": [
        {
          "internalType": "string",
          "name": "dealId",
          "type": "string"
        }
      ],
      "name": "timeoutSubmitResult",
      "outputs": [],
      "stateMutability": "nonpayable",
      "type": "function"
    },
    {
      "inputs": [
        {
          "internalType": "address",
          "name": "newOwner",
          "type": "address"
        }
      ],
      "name": "transferOwnership",
      "outputs": [],
      "stateMutability": "nonpayable",
      "type": "function"
    }
  ],
  "transactionHash": "0x7405ea84a9134a9a5289c341aece31dcba6be437f1510709bb4ace508614efb8",
  "args": [],
  "numDeployments": 1,
  "solcInputHash": "d6055c65e1b841bf28daff3327e24c1f",
  "bytecode": "0x608060405260018060146101000a81548160ff0219169083151502179055506001600260146101000a81548160ff0219169083151502179055503480156200004657600080fd5b50620000676200005b6200006d60201b60201c565b6200007560201b60201c565b62000139565b600033905090565b60008060009054906101000a900473ffffffffffffffffffffffffffffffffffffffff169050816000806101000a81548173ffffffffffffffffffffffffffffffffffffffff021916908373ffffffffffffffffffffffffffffffffffffffff1602179055508173ffffffffffffffffffffffffffffffffffffffff168173ffffffffffffffffffffffffffffffffffffffff167f8be0079c531659141344cd1fd0a4f28419497f9722a3daafe3b4186f6b6457e060405160405180910390a35050565b6151c180620001496000396000f3fe608060405234801561001057600080fd5b50600436106101a95760003560e01c80638224ce5f116100f9578063cdd82d1d11610097578063e850be3711610071578063e850be37146104dc578063ec95b967146104f8578063f2fde38b14610528578063f3d3d44814610544576101a9565b8063cdd82d1d14610460578063e707918014610490578063e7b957d1146104c0576101a9565b8063a4702958116100d3578063a4702958146103d8578063a6370b0e146103e2578063b050e74b14610412578063c57380a214610442576101a9565b80638224ce5f1461036e578063824518aa1461039e5780638da5cb5b146103ba576101a9565b8063498cc70d1161016657806373db5c6a1161014057806373db5c6a146102fc578063795f9abf1461032c57806380ffdfe0146103485780638129fc1c14610364576101a9565b8063498cc70d146102a6578063511a9f68146102d6578063715018a6146102f2576101a9565b806311d5af33146101ae5780632244ad2b146101de578063297f9e551461020e5780633955548e1461022a5780633c4135da1461025a57806346834d1e1461028a575b600080fd5b6101c860048036038101906101c39190613173565b610560565b6040516101d591906132f2565b60405180910390f35b6101f860048036038101906101f39190613449565b610678565b60405161020591906134ad565b60405180910390f35b61022860048036038101906102239190613449565b610691565b005b610244600480360381019061023f91906134fe565b610718565b6040516102519190613639565b60405180910390f35b610274600480360381019061026f9190613449565b610a25565b60405161028191906137f2565b60405180910390f35b6102a4600480360381019061029f9190613449565b610bff565b005b6102c060048036038101906102bb9190613449565b610c86565b6040516102cd9190613639565b60405180910390f35b6102f060048036038101906102eb9190613449565b610e7e565b005b6102fa610f05565b005b61031660048036038101906103119190613449565b610f19565b604051610323919061381d565b60405180910390f35b61034660048036038101906103419190613449565b610f73565b005b610362600480360381019061035d9190613449565b610ffa565b005b61036c611081565b005b61038860048036038101906103839190613449565b6111ba565b604051610395919061381d565b60405180910390f35b6103b860048036038101906103b39190613449565b6111fb565b005b6103c2611282565b6040516103cf9190613847565b60405180910390f35b6103e06112ab565b005b6103fc60048036038101906103f79190613b09565b6112d0565b6040516104099190613e11565b60405180910390f35b61042c60048036038101906104279190613e58565b6119dd565b60405161043991906134ad565b60405180910390f35b61044a611a79565b6040516104579190613847565b60405180910390f35b61047a60048036038101906104759190613449565b611aa3565b60405161048791906137f2565b60405180910390f35b6104aa60048036038101906104a59190613449565b611b99565b6040516104b79190613e11565b60405180910390f35b6104da60048036038101906104d59190613449565b611ef7565b005b6104f660048036038101906104f19190613449565b611f7e565b005b610512600480360381019061050d9190613449565b612005565b60405161051f91906137f2565b60405180910390f35b610542600480360381019061053d9190613173565b6121df565b005b61055e60048036038101906105599190613173565b612262565b005b6060600460008373ffffffffffffffffffffffffffffffffffffffff1673ffffffffffffffffffffffffffffffffffffffff168152602001908152602001600020805480602002602001604051908101604052809291908181526020016000905b8282101561066d5783829060005260206000200180546105e090613ee3565b80601f016020809104026020016040519081016040528092919081815260200182805461060c90613ee3565b80156106595780601f1061062e57610100808354040283529160200191610659565b820191906000526020600020905b81548152906001019060200180831161063c57829003601f168201915b5050505050815260200190600101906105c1565b505050509050919050565b60008061068483611b99565b6000015151119050919050565b61069961236c565b506106a58160026119dd565b6106e4576040517f08c379a00000000000000000000000000000000000000000000000000000000081526004016106db90613f71565b60405180910390fd5b426005826040516106f59190613fcd565b90815260200160405180910390206006018190555061071581600361249c565b50565b610720612e8b565b61072861236c565b506107348560016119dd565b610773576040517f08c379a000000000000000000000000000000000000000000000000000000000815260040161076a90614030565b60405180910390fd5b426005866040516107849190613fcd565b9081526020016040518091039020600501819055506107a485600261249c565b6040518060800160405280868152602001858152602001848152602001838152506006866040516107d59190613fcd565b908152602001604051809103902060008201518160000190816107f891906141fc565b50602082015181600101908161080e91906141fc565b50604082015181600201908161082491906141fc565b50606082015181600301559050506006856040516108429190613fcd565b908152602001604051809103902060405180608001604052908160008201805461086b90613ee3565b80601f016020809104026020016040519081016040528092919081815260200182805461089790613ee3565b80156108e45780601f106108b9576101008083540402835291602001916108e4565b820191906000526020600020905b8154815290600101906020018083116108c757829003601f168201915b505050505081526020016001820180546108fd90613ee3565b80601f016020809104026020016040519081016040528092919081815260200182805461092990613ee3565b80156109765780601f1061094b57610100808354040283529160200191610976565b820191906000526020600020905b81548152906001019060200180831161095957829003601f168201915b5050505050815260200160028201805461098f90613ee3565b80601f01602080910402602001604051908101604052809291908181526020018280546109bb90613ee3565b8015610a085780601f106109dd57610100808354040283529160200191610a08565b820191906000526020600020905b8154815290600101906020018083116109eb57829003601f168201915b505050505081526020016003820154815250509050949350505050565b610a2d612eb3565b610a3561236c565b50610a3f82610678565b610a7e576040517f08c379a0000000000000000000000000000000000000000000000000000000008152600401610a759061431a565b60405180910390fd5b6000600583604051610a909190613fcd565b90815260200160405180910390206002015414610ae2576040517f08c379a0000000000000000000000000000000000000000000000000000000008152600401610ad990614386565b60405180910390fd5b42600583604051610af39190613fcd565b908152602001604051809103902060020181905550610b1182612522565b600582604051610b219190613fcd565b9081526020016040518091039020604051806101c00160405290816000820160009054906101000a900460ff16600a811115610b6057610b5f61365b565b5b600a811115610b7257610b7161365b565b5b8152602001600182015481526020016002820154815260200160038201548152602001600482015481526020016005820154815260200160068201548152602001600782015481526020016008820154815260200160098201548152602001600a8201548152602001600b8201548152602001600c8201548152602001600d820154815250509050919050565b610c0761236c565b50610c138160026119dd565b610c52576040517f08c379a0000000000000000000000000000000000000000000000000000000008152600401610c4990613f71565b60405180910390fd5b42600582604051610c639190613fcd565b908152602001604051809103902060070181905550610c8381600461249c565b50565b610c8e612e8b565b600682604051610c9e9190613fcd565b9081526020016040518091039020604051806080016040529081600082018054610cc790613ee3565b80601f0160208091040260200160405190810160405280929190818152602001828054610cf390613ee3565b8015610d405780601f10610d1557610100808354040283529160200191610d40565b820191906000526020600020905b815481529060010190602001808311610d2357829003601f168201915b50505050508152602001600182018054610d5990613ee3565b80601f0160208091040260200160405190810160405280929190818152602001828054610d8590613ee3565b8015610dd25780601f10610da757610100808354040283529160200191610dd2565b820191906000526020600020905b815481529060010190602001808311610db557829003601f168201915b50505050508152602001600282018054610deb90613ee3565b80601f0160208091040260200160405190810160405280929190818152602001828054610e1790613ee3565b8015610e645780601f10610e3957610100808354040283529160200191610e64565b820191906000526020600020905b815481529060010190602001808311610e4757829003601f168201915b505050505081526020016003820154815250509050919050565b610e8661236c565b50610e928160016119dd565b610ed1576040517f08c379a0000000000000000000000000000000000000000000000000000000008152600401610ec890614030565b60405180910390fd5b42600582604051610ee29190613fcd565b9081526020016040518091039020600b0181905550610f0281600861249c565b50565b610f0d6125db565b610f176000612659565b565b6000600682604051610f2b9190613fcd565b908152602001604051809103902060030154600383604051610f4d9190613fcd565b9081526020016040518091039020600d0160000154610f6c91906143d5565b9050919050565b610f7b61236c565b50610f878160006119dd565b610fc6576040517f08c379a0000000000000000000000000000000000000000000000000000000008152600401610fbd90614463565b60405180910390fd5b42600582604051610fd79190613fcd565b9081526020016040518091039020600a0181905550610ff781600761249c565b50565b61100261236c565b5061100e8160046119dd565b61104d576040517f08c379a0000000000000000000000000000000000000000000000000000000008152600401611044906144cf565b60405180910390fd5b4260058260405161105e9190613fcd565b90815260200160405180910390206009018190555061107e81600661249c565b50565b6000600160169054906101000a900460ff161590508080156110b4575060018060159054906101000a900460ff1660ff16105b806110e257506110c33061271d565b1580156110e1575060018060159054906101000a900460ff1660ff16145b5b611121576040517f08c379a000000000000000000000000000000000000000000000000000000000815260040161111890614561565b60405180910390fd5b60018060156101000a81548160ff021916908360ff160217905550801561115d5760018060166101000a81548160ff0219169083151502179055505b80156111b7576000600160166101000a81548160ff0219169083151502179055507f7f26b83ff96e1f2b6a682f133852f6798a09c465da95921460cefb384740249860016040516111ae91906145c9565b60405180910390a15b50565b60006111c582610f19565b6003836040516111d59190613fcd565b9081526020016040518091039020600d01600201546111f491906143d5565b9050919050565b61120361236c565b5061120f8160046119dd565b61124e576040517f08c379a0000000000000000000000000000000000000000000000000000000008152600401611245906144cf565b60405180910390fd5b4260058260405161125f9190613fcd565b90815260200160405180910390206008018190555061127f81600561249c565b50565b60008060009054906101000a900473ffffffffffffffffffffffffffffffffffffffff16905090565b6112b36125db565b6000600160146101000a81548160ff021916908315150217905550565b6112d8612f34565b6112e061236c565b506112ec8560006119dd565b61132b576040517f08c379a000000000000000000000000000000000000000000000000000000000815260040161132290614463565b60405180910390fd5b61133484612740565b61133d8361295a565b61134685610678565b1561138857600061135686611b99565b90506113668160200151866129f3565b611374816040015185612c73565b611382816060015184612cbf565b50611684565b6040518060800160405280868152602001858152602001848152602001838152506003866040516113b99190613fcd565b908152602001604051809103902060008201518160000190816113dc91906141fc565b5060208201518160010160008201518160000160006101000a81548173ffffffffffffffffffffffffffffffffffffffff021916908373ffffffffffffffffffffffffffffffffffffffff16021790555060208201518160010160006101000a81548173ffffffffffffffffffffffffffffffffffffffff021916908373ffffffffffffffffffffffffffffffffffffffff16021790555060408201518160020160006101000a81548173ffffffffffffffffffffffffffffffffffffffff021916908373ffffffffffffffffffffffffffffffffffffffff16021790555060608201518160030190805190602001906114d7929190612f6e565b505050604082015181600501600082015181600001600082015181600001556020820151816001015550506020820151816002016000820151816000015560208201518160010155505060408201518160040160008201518160000155602082015181600101555050606082015181600601600082015181600001556020820151816001015550505050606082015181600d0160008201518160000155602082015181600101556040820151816002015560608201518160030155505090505060046000856040015173ffffffffffffffffffffffffffffffffffffffff1673ffffffffffffffffffffffffffffffffffffffff1681526020019081526020016000208590806001815401808255809150506001900390600052602060002001600090919091909150908161160c91906141fc565b5060046000856020015173ffffffffffffffffffffffffffffffffffffffff1673ffffffffffffffffffffffffffffffffffffffff1681526020019081526020016000208590806001815401808255809150506001900390600052602060002001600090919091909150908161168291906141fc565b505b6003856040516116949190613fcd565b90815260200160405180910390206040518060800160405290816000820180546116bd90613ee3565b80601f01602080910402602001604051908101604052809291908181526020018280546116e990613ee3565b80156117365780601f1061170b57610100808354040283529160200191611736565b820191906000526020600020905b81548152906001019060200180831161171957829003601f168201915b50505050508152602001600182016040518060800160405290816000820160009054906101000a900473ffffffffffffffffffffffffffffffffffffffff1673ffffffffffffffffffffffffffffffffffffffff1673ffffffffffffffffffffffffffffffffffffffff1681526020016001820160009054906101000a900473ffffffffffffffffffffffffffffffffffffffff1673ffffffffffffffffffffffffffffffffffffffff1673ffffffffffffffffffffffffffffffffffffffff1681526020016002820160009054906101000a900473ffffffffffffffffffffffffffffffffffffffff1673ffffffffffffffffffffffffffffffffffffffff1673ffffffffffffffffffffffffffffffffffffffff168152602001600382018054806020026020016040519081016040528092919081815260200182805480156118d657602002820191906000526020600020905b8160009054906101000a900473ffffffffffffffffffffffffffffffffffffffff1673ffffffffffffffffffffffffffffffffffffffff168152602001906001019080831161188c575b5050505050815250508152602001600582016040518060800160405290816000820160405180604001604052908160008201548152602001600182015481525050815260200160028201604051806040016040529081600082015481526020016001820154815250508152602001600482016040518060400160405290816000820154815260200160018201548152505081526020016006820160405180604001604052908160008201548152602001600182015481525050815250508152602001600d8201604051806080016040529081600082015481526020016001820154815260200160028201548152602001600382015481525050815250509050949350505050565b60006119e883610678565b611a1b576000600a811115611a00576119ff61365b565b5b82600a811115611a1357611a1261365b565b5b149050611a73565b81600a811115611a2e57611a2d61365b565b5b600584604051611a3e9190613fcd565b908152602001604051809103902060000160009054906101000a900460ff16600a811115611a6f57611a6e61365b565b5b1490505b92915050565b6000600160009054906101000a900473ffffffffffffffffffffffffffffffffffffffff16905090565b611aab612eb3565b600582604051611abb9190613fcd565b9081526020016040518091039020604051806101c00160405290816000820160009054906101000a900460ff16600a811115611afa57611af961365b565b5b600a811115611b0c57611b0b61365b565b5b8152602001600182015481526020016002820154815260200160038201548152602001600482015481526020016005820154815260200160068201548152602001600782015481526020016008820154815260200160098201548152602001600a8201548152602001600b8201548152602001600c8201548152602001600d820154815250509050919050565b611ba1612f34565b600382604051611bb19190613fcd565b9081526020016040518091039020604051806080016040529081600082018054611bda90613ee3565b80601f0160208091040260200160405190810160405280929190818152602001828054611c0690613ee3565b8015611c535780601f10611c2857610100808354040283529160200191611c53565b820191906000526020600020905b815481529060010190602001808311611c3657829003601f168201915b50505050508152602001600182016040518060800160405290816000820160009054906101000a900473ffffffffffffffffffffffffffffffffffffffff1673ffffffffffffffffffffffffffffffffffffffff1673ffffffffffffffffffffffffffffffffffffffff1681526020016001820160009054906101000a900473ffffffffffffffffffffffffffffffffffffffff1673ffffffffffffffffffffffffffffffffffffffff1673ffffffffffffffffffffffffffffffffffffffff1681526020016002820160009054906101000a900473ffffffffffffffffffffffffffffffffffffffff1673ffffffffffffffffffffffffffffffffffffffff1673ffffffffffffffffffffffffffffffffffffffff16815260200160038201805480602002602001604051908101604052809291908181526020018280548015611df357602002820191906000526020600020905b8160009054906101000a900473ffffffffffffffffffffffffffffffffffffffff1673ffffffffffffffffffffffffffffffffffffffff1681526020019060010190808311611da9575b5050505050815250508152602001600582016040518060800160405290816000820160405180604001604052908160008201548152602001600182015481525050815260200160028201604051806040016040529081600082015481526020016001820154815250508152602001600482016040518060400160405290816000820154815260200160018201548152505081526020016006820160405180604001604052908160008201548152602001600182015481525050815250508152602001600d8201604051806080016040529081600082015481526020016001820154815260200160028201548152602001600382015481525050815250509050919050565b611eff61236c565b50611f0b8160046119dd565b611f4a576040517f08c379a0000000000000000000000000000000000000000000000000000000008152600401611f41906144cf565b60405180910390fd5b42600582604051611f5b9190613fcd565b9081526020016040518091039020600d0181905550611f7b81600a61249c565b50565b611f8661236c565b50611f928160026119dd565b611fd1576040517f08c379a0000000000000000000000000000000000000000000000000000000008152600401611fc890613f71565b60405180910390fd5b42600582604051611fe29190613fcd565b9081526020016040518091039020600c018190555061200281600961249c565b50565b61200d612eb3565b61201561236c565b5061201f82610678565b61205e576040517f08c379a00000000000000000000000000000000000000000000000000000000081526004016120559061431a565b60405180910390fd5b60006005836040516120709190613fcd565b908152602001604051809103902060010154146120c2576040517f08c379a00000000000000000000000000000000000000000000000000000000081526004016120b990614630565b60405180910390fd5b426005836040516120d39190613fcd565b9081526020016040518091039020600101819055506120f182612522565b6005826040516121019190613fcd565b9081526020016040518091039020604051806101c00160405290816000820160009054906101000a900460ff16600a8111156121405761213f61365b565b5b600a8111156121525761215161365b565b5b8152602001600182015481526020016002820154815260200160038201548152602001600482015481526020016005820154815260200160068201548152602001600782015481526020016008820154815260200160098201548152602001600a8201548152602001600b8201548152602001600c8201548152602001600d820154815250509050919050565b6121e76125db565b600073ffffffffffffffffffffffffffffffffffffffff168173ffffffffffffffffffffffffffffffffffffffff1603612256576040517f08c379a000000000000000000000000000000000000000000000000000000000815260040161224d906146c2565b60405180910390fd5b61225f81612659565b50565b61226a6125db565b600073ffffffffffffffffffffffffffffffffffffffff168173ffffffffffffffffffffffffffffffffffffffff16036122d9576040517f08c379a00000000000000000000000000000000000000000000000000000000081526004016122d090614754565b60405180910390fd5b600160149054906101000a900460ff16612328576040517f08c379a000000000000000000000000000000000000000000000000000000000815260040161231f906147e6565b60405180910390fd5b80600160006101000a81548173ffffffffffffffffffffffffffffffffffffffff021916908373ffffffffffffffffffffffffffffffffffffffff16021790555050565b60008073ffffffffffffffffffffffffffffffffffffffff16600160009054906101000a900473ffffffffffffffffffffffffffffffffffffffff1673ffffffffffffffffffffffffffffffffffffffff16036123fe576040517f08c379a00000000000000000000000000000000000000000000000000000000081526004016123f590614754565b60405180910390fd5b600160009054906101000a900473ffffffffffffffffffffffffffffffffffffffff1673ffffffffffffffffffffffffffffffffffffffff1661243f612deb565b73ffffffffffffffffffffffffffffffffffffffff1614612495576040517f08c379a000000000000000000000000000000000000000000000000000000000815260040161248c90614878565b60405180910390fd5b6001905090565b806005836040516124ad9190613fcd565b908152602001604051809103902060000160006101000a81548160ff0219169083600a8111156124e0576124df61365b565b5b02179055507f10ca3d89184491f5d8de422bd36534abe6eb4b4aa1429a261bdb5ff1dd9ac38682826040516125169291906148e0565b60405180910390a15050565b60006005826040516125349190613fcd565b90815260200160405180910390206001015414158015612576575060006005826040516125619190613fcd565b90815260200160405180910390206002015414155b156125b1574260058260405161258c9190613fcd565b9081526020016040518091039020600401819055506125ac81600161249c565b6125d8565b426005826040516125c29190613fcd565b9081526020016040518091039020600301819055505b50565b6125e3612deb565b73ffffffffffffffffffffffffffffffffffffffff16612601611282565b73ffffffffffffffffffffffffffffffffffffffff1614612657576040517f08c379a000000000000000000000000000000000000000000000000000000000815260040161264e9061495c565b60405180910390fd5b565b60008060009054906101000a900473ffffffffffffffffffffffffffffffffffffffff169050816000806101000a81548173ffffffffffffffffffffffffffffffffffffffff021916908373ffffffffffffffffffffffffffffffffffffffff1602179055508173ffffffffffffffffffffffffffffffffffffffff168173ffffffffffffffffffffffffffffffffffffffff167f8be0079c531659141344cd1fd0a4f28419497f9722a3daafe3b4186f6b6457e060405160405180910390a35050565b6000808273ffffffffffffffffffffffffffffffffffffffff163b119050919050565b600073ffffffffffffffffffffffffffffffffffffffff16816040015173ffffffffffffffffffffffffffffffffffffffff16036127b3576040517f08c379a00000000000000000000000000000000000000000000000000000000081526004016127aa906149c8565b60405180910390fd5b600073ffffffffffffffffffffffffffffffffffffffff16816020015173ffffffffffffffffffffffffffffffffffffffff1603612826576040517f08c379a000000000000000000000000000000000000000000000000000000000815260040161281d90614a34565b60405180910390fd5b600073ffffffffffffffffffffffffffffffffffffffff16816000015173ffffffffffffffffffffffffffffffffffffffff1603612899576040517f08c379a000000000000000000000000000000000000000000000000000000000815260040161289090614aa0565b60405180910390fd5b6000816060015151116128e1576040517f08c379a00000000000000000000000000000000000000000000000000000000081526004016128d890614b0c565b60405180910390fd5b806020015173ffffffffffffffffffffffffffffffffffffffff16816040015173ffffffffffffffffffffffffffffffffffffffff1603612957576040517f08c379a000000000000000000000000000000000000000000000000000000000815260040161294e90614b78565b60405180910390fd5b50565b6000816000015160200151146129a5576040517f08c379a000000000000000000000000000000000000000000000000000000000815260040161299c90614be4565b60405180910390fd5b6000816060015160200151146129f0576040517f08c379a00000000000000000000000000000000000000000000000000000000081526004016129e790614c50565b60405180910390fd5b50565b806040015173ffffffffffffffffffffffffffffffffffffffff16826040015173ffffffffffffffffffffffffffffffffffffffff1614612a69576040517f08c379a0000000000000000000000000000000000000000000000000000000008152600401612a6090614cbc565b60405180910390fd5b806020015173ffffffffffffffffffffffffffffffffffffffff16826020015173ffffffffffffffffffffffffffffffffffffffff1614612adf576040517f08c379a0000000000000000000000000000000000000000000000000000000008152600401612ad690614d28565b60405180910390fd5b806000015173ffffffffffffffffffffffffffffffffffffffff16826000015173ffffffffffffffffffffffffffffffffffffffff1614612b55576040517f08c379a0000000000000000000000000000000000000000000000000000000008152600401612b4c90614d94565b60405180910390fd5b80606001515182606001515114612ba1576040517f08c379a0000000000000000000000000000000000000000000000000000000008152600401612b9890614e00565b60405180910390fd5b60005b826060015151811015612c6e5781606001518181518110612bc857612bc7614e20565b5b602002602001015173ffffffffffffffffffffffffffffffffffffffff1683606001518281518110612bfd57612bfc614e20565b5b602002602001015173ffffffffffffffffffffffffffffffffffffffff1614612c5b576040517f08c379a0000000000000000000000000000000000000000000000000000000008152600401612c5290614e9b565b60405180910390fd5b8080612c6690614ebb565b915050612ba4565b505050565b612c8582600001518260000151612df3565b612c9782602001518260200151612df3565b612ca982604001518260400151612df3565b612cbb82606001518260600151612df3565b5050565b8060000151826000015114612d09576040517f08c379a0000000000000000000000000000000000000000000000000000000008152600401612d0090614f4f565b60405180910390fd5b8060200151826020015114612d53576040517f08c379a0000000000000000000000000000000000000000000000000000000008152600401612d4a90614fbb565b60405180910390fd5b8060400151826040015114612d9d576040517f08c379a0000000000000000000000000000000000000000000000000000000008152600401612d9490615027565b60405180910390fd5b8060600151826060015114612de7576040517f08c379a0000000000000000000000000000000000000000000000000000000008152600401612dde90615093565b60405180910390fd5b5050565b600033905090565b8060000151826000015114612e3d576040517f08c379a0000000000000000000000000000000000000000000000000000000008152600401612e34906150ff565b60405180910390fd5b8060200151826020015114612e87576040517f08c379a0000000000000000000000000000000000000000000000000000000008152600401612e7e9061516b565b60405180910390fd5b5050565b6040518060800160405280606081526020016060815260200160608152602001600081525090565b604051806101c001604052806000600a811115612ed357612ed261365b565b5b8152602001600081526020016000815260200160008152602001600081526020016000815260200160008152602001600081526020016000815260200160008152602001600081526020016000815260200160008152602001600081525090565b604051806080016040528060608152602001612f4e612ff8565b8152602001612f5b613062565b8152602001612f686130a2565b81525090565b828054828255906000526020600020908101928215612fe7579160200282015b82811115612fe65782518260006101000a81548173ffffffffffffffffffffffffffffffffffffffff021916908373ffffffffffffffffffffffffffffffffffffffff16021790555091602001919060010190612f8e565b5b509050612ff491906130ca565b5090565b6040518060800160405280600073ffffffffffffffffffffffffffffffffffffffff168152602001600073ffffffffffffffffffffffffffffffffffffffff168152602001600073ffffffffffffffffffffffffffffffffffffffff168152602001606081525090565b60405180608001604052806130756130e7565b81526020016130826130e7565b815260200161308f6130e7565b815260200161309c6130e7565b81525090565b6040518060800160405280600081526020016000815260200160008152602001600081525090565b5b808211156130e35760008160009055506001016130cb565b5090565b604051806040016040528060008152602001600081525090565b6000604051905090565b600080fd5b600080fd5b600073ffffffffffffffffffffffffffffffffffffffff82169050919050565b600061314082613115565b9050919050565b61315081613135565b811461315b57600080fd5b50565b60008135905061316d81613147565b92915050565b6000602082840312156131895761318861310b565b5b60006131978482850161315e565b91505092915050565b600081519050919050565b600082825260208201905092915050565b6000819050602082019050919050565b600081519050919050565b600082825260208201905092915050565b60005b838110156132065780820151818401526020810190506131eb565b60008484015250505050565b6000601f19601f8301169050919050565b600061322e826131cc565b61323881856131d7565b93506132488185602086016131e8565b61325181613212565b840191505092915050565b60006132688383613223565b905092915050565b6000602082019050919050565b6000613288826131a0565b61329281856131ab565b9350836020820285016132a4856131bc565b8060005b858110156132e057848403895281516132c1858261325c565b94506132cc83613270565b925060208a019950506001810190506132a8565b50829750879550505050505092915050565b6000602082019050818103600083015261330c818461327d565b905092915050565b600080fd5b600080fd5b7f4e487b7100000000000000000000000000000000000000000000000000000000600052604160045260246000fd5b61335682613212565b810181811067ffffffffffffffff821117156133755761337461331e565b5b80604052505050565b6000613388613101565b9050613394828261334d565b919050565b600067ffffffffffffffff8211156133b4576133b361331e565b5b6133bd82613212565b9050602081019050919050565b82818337600083830152505050565b60006133ec6133e784613399565b61337e565b90508281526020810184848401111561340857613407613319565b5b6134138482856133ca565b509392505050565b600082601f8301126134305761342f613314565b5b81356134408482602086016133d9565b91505092915050565b60006020828403121561345f5761345e61310b565b5b600082013567ffffffffffffffff81111561347d5761347c613110565b5b6134898482850161341b565b91505092915050565b60008115159050919050565b6134a781613492565b82525050565b60006020820190506134c2600083018461349e565b92915050565b6000819050919050565b6134db816134c8565b81146134e657600080fd5b50565b6000813590506134f8816134d2565b92915050565b600080600080608085870312156135185761351761310b565b5b600085013567ffffffffffffffff81111561353657613535613110565b5b6135428782880161341b565b945050602085013567ffffffffffffffff81111561356357613562613110565b5b61356f8782880161341b565b935050604085013567ffffffffffffffff8111156135905761358f613110565b5b61359c8782880161341b565b92505060606135ad878288016134e9565b91505092959194509250565b6135c2816134c8565b82525050565b600060808301600083015184820360008601526135e58282613223565b915050602083015184820360208601526135ff8282613223565b915050604083015184820360408601526136198282613223565b915050606083015161362e60608601826135b9565b508091505092915050565b6000602082019050818103600083015261365381846135c8565b905092915050565b7f4e487b7100000000000000000000000000000000000000000000000000000000600052602160045260246000fd5b600b811061369b5761369a61365b565b5b50565b60008190506136ac8261368a565b919050565b60006136bc8261369e565b9050919050565b6136cc816136b1565b82525050565b6101c0820160008201516136e960008501826136c3565b5060208201516136fc60208501826135b9565b50604082015161370f60408501826135b9565b50606082015161372260608501826135b9565b50608082015161373560808501826135b9565b5060a082015161374860a08501826135b9565b5060c082015161375b60c08501826135b9565b5060e082015161376e60e08501826135b9565b506101008201516137836101008501826135b9565b506101208201516137986101208501826135b9565b506101408201516137ad6101408501826135b9565b506101608201516137c26101608501826135b9565b506101808201516137d76101808501826135b9565b506101a08201516137ec6101a08501826135b9565b50505050565b60006101c08201905061380860008301846136d2565b92915050565b613817816134c8565b82525050565b6000602082019050613832600083018461380e565b92915050565b61384181613135565b82525050565b600060208201905061385c6000830184613838565b92915050565b600080fd5b600080fd5b600067ffffffffffffffff8211156138875761388661331e565b5b602082029050602081019050919050565b600080fd5b60006138b06138ab8461386c565b61337e565b905080838252602082019050602084028301858111156138d3576138d2613898565b5b835b818110156138fc57806138e8888261315e565b8452602084019350506020810190506138d5565b5050509392505050565b600082601f83011261391b5761391a613314565b5b813561392b84826020860161389d565b91505092915050565b60006080828403121561394a57613949613862565b5b613954608061337e565b905060006139648482850161315e565b60008301525060206139788482850161315e565b602083015250604061398c8482850161315e565b604083015250606082013567ffffffffffffffff8111156139b0576139af613867565b5b6139bc84828501613906565b60608301525092915050565b6000604082840312156139de576139dd613862565b5b6139e8604061337e565b905060006139f8848285016134e9565b6000830152506020613a0c848285016134e9565b60208301525092915050565b60006101008284031215613a2f57613a2e613862565b5b613a39608061337e565b90506000613a49848285016139c8565b6000830152506040613a5d848285016139c8565b6020830152506080613a71848285016139c8565b60408301525060c0613a85848285016139c8565b60608301525092915050565b600060808284031215613aa757613aa6613862565b5b613ab1608061337e565b90506000613ac1848285016134e9565b6000830152506020613ad5848285016134e9565b6020830152506040613ae9848285016134e9565b6040830152506060613afd848285016134e9565b60608301525092915050565b6000806000806101c08587031215613b2457613b2361310b565b5b600085013567ffffffffffffffff811115613b4257613b41613110565b5b613b4e8782880161341b565b945050602085013567ffffffffffffffff811115613b6f57613b6e613110565b5b613b7b87828801613934565b9350506040613b8c87828801613a18565b925050610140613b9e87828801613a91565b91505092959194509250565b613bb381613135565b82525050565b600081519050919050565b600082825260208201905092915050565b6000819050602082019050919050565b6000613bf18383613baa565b60208301905092915050565b6000602082019050919050565b6000613c1582613bb9565b613c1f8185613bc4565b9350613c2a83613bd5565b8060005b83811015613c5b578151613c428882613be5565b9750613c4d83613bfd565b925050600181019050613c2e565b5085935050505092915050565b6000608083016000830151613c806000860182613baa565b506020830151613c936020860182613baa565b506040830151613ca66040860182613baa565b5060608301518482036060860152613cbe8282613c0a565b9150508091505092915050565b604082016000820151613ce160008501826135b9565b506020820151613cf460208501826135b9565b50505050565b61010082016000820151613d116000850182613ccb565b506020820151613d246040850182613ccb565b506040820151613d376080850182613ccb565b506060820151613d4a60c0850182613ccb565b50505050565b608082016000820151613d6660008501826135b9565b506020820151613d7960208501826135b9565b506040820151613d8c60408501826135b9565b506060820151613d9f60608501826135b9565b50505050565b60006101c0830160008301518482036000860152613dc38282613223565b91505060208301518482036020860152613ddd8282613c68565b9150506040830151613df26040860182613cfa565b506060830151613e06610140860182613d50565b508091505092915050565b60006020820190508181036000830152613e2b8184613da5565b905092915050565b600b8110613e4057600080fd5b50565b600081359050613e5281613e33565b92915050565b60008060408385031215613e6f57613e6e61310b565b5b600083013567ffffffffffffffff811115613e8d57613e8c613110565b5b613e998582860161341b565b9250506020613eaa85828601613e43565b9150509250929050565b7f4e487b7100000000000000000000000000000000000000000000000000000000600052602260045260246000fd5b60006002820490506001821680613efb57607f821691505b602082108103613f0e57613f0d613eb4565b5b50919050565b600082825260208201905092915050565b7f526573756c74735375626d697474656400000000000000000000000000000000600082015250565b6000613f5b601083613f14565b9150613f6682613f25565b602082019050919050565b60006020820190508181036000830152613f8a81613f4e565b9050919050565b600081905092915050565b6000613fa7826131cc565b613fb18185613f91565b9350613fc18185602086016131e8565b80840191505092915050565b6000613fd98284613f9c565b915081905092915050565b7f4465616c41677265656400000000000000000000000000000000000000000000600082015250565b600061401a600a83613f14565b915061402582613fe4565b602082019050919050565b600060208201905081810360008301526140498161400d565b9050919050565b60008190508160005260206000209050919050565b60006020601f8301049050919050565b600082821b905092915050565b6000600883026140b27fffffffffffffffffffffffffffffffffffffffffffffffffffffffffffffffff82614075565b6140bc8683614075565b95508019841693508086168417925050509392505050565b6000819050919050565b60006140f96140f46140ef846134c8565b6140d4565b6134c8565b9050919050565b6000819050919050565b614113836140de565b61412761411f82614100565b848454614082565b825550505050565b600090565b61413c61412f565b61414781848461410a565b505050565b5b8181101561416b57614160600082614134565b60018101905061414d565b5050565b601f8211156141b05761418181614050565b61418a84614065565b81016020851015614199578190505b6141ad6141a585614065565b83018261414c565b50505b505050565b600082821c905092915050565b60006141d3600019846008026141b5565b1980831691505092915050565b60006141ec83836141c2565b9150826002028217905092915050565b614205826131cc565b67ffffffffffffffff81111561421e5761421d61331e565b5b6142288254613ee3565b61423382828561416f565b600060209050601f8311600181146142665760008415614254578287015190505b61425e85826141e0565b8655506142c6565b601f19841661427486614050565b60005b8281101561429c57848901518255600182019150602085019450602081019050614277565b868310156142b957848901516142b5601f8916826141c2565b8355505b6001600288020188555050505b505050505050565b7f4465616c20646f6573206e6f7420657869737400000000000000000000000000600082015250565b6000614304601383613f14565b915061430f826142ce565b602082019050919050565b60006020820190508181036000830152614333816142f7565b9050919050565b7f4a432068617320616c7265616479206167726565640000000000000000000000600082015250565b6000614370601583613f14565b915061437b8261433a565b602082019050919050565b6000602082019050818103600083015261439f81614363565b9050919050565b7f4e487b7100000000000000000000000000000000000000000000000000000000600052601160045260246000fd5b60006143e0826134c8565b91506143eb836134c8565b92508282026143f9816134c8565b915082820484148315176144105761440f6143a6565b5b5092915050565b7f4465616c4e65676f74696174696e670000000000000000000000000000000000600082015250565b600061444d600f83613f14565b915061445882614417565b602082019050919050565b6000602082019050818103600083015261447c81614440565b9050919050565b7f526573756c7473436865636b6564000000000000000000000000000000000000600082015250565b60006144b9600e83613f14565b91506144c482614483565b602082019050919050565b600060208201905081810360008301526144e8816144ac565b9050919050565b7f496e697469616c697a61626c653a20636f6e747261637420697320616c72656160008201527f647920696e697469616c697a6564000000000000000000000000000000000000602082015250565b600061454b602e83613f14565b9150614556826144ef565b604082019050919050565b6000602082019050818103600083015261457a8161453e565b9050919050565b6000819050919050565b600060ff82169050919050565b60006145b36145ae6145a984614581565b6140d4565b61458b565b9050919050565b6145c381614598565b82525050565b60006020820190506145de60008301846145ba565b92915050565b7f52502068617320616c7265616479206167726565640000000000000000000000600082015250565b600061461a601583613f14565b9150614625826145e4565b602082019050919050565b600060208201905081810360008301526146498161460d565b9050919050565b7f4f776e61626c653a206e6577206f776e657220697320746865207a65726f206160008201527f6464726573730000000000000000000000000000000000000000000000000000602082015250565b60006146ac602683613f14565b91506146b782614650565b604082019050919050565b600060208201905081810360008301526146db8161469f565b9050919050565b7f436f6e74726f6c6c65724f776e61626c653a20436f6e74726f6c6c657220616460008201527f6472657373206d75737420626520646566696e65640000000000000000000000602082015250565b600061473e603583613f14565b9150614749826146e2565b604082019050919050565b6000602082019050818103600083015261476d81614731565b9050919050565b7f436f6e74726f6c6c65724f776e61626c653a2063616e4368616e6765436f6e7460008201527f726f6c6c6572416464726573732069732064697361626c656400000000000000602082015250565b60006147d0603983613f14565b91506147db82614774565b604082019050919050565b600060208201905081810360008301526147ff816147c3565b9050919050565b7f436f6e74726f6c6c65724f776e61626c653a204f6e6c792074686520636f6e7460008201527f726f6c6c65722063616e2063616c6c2074686973206d6574686f640000000000602082015250565b6000614862603b83613f14565b915061486d82614806565b604082019050919050565b6000602082019050818103600083015261489181614855565b9050919050565b60006148a3826131cc565b6148ad8185613f14565b93506148bd8185602086016131e8565b6148c681613212565b840191505092915050565b6148da816136b1565b82525050565b600060408201905081810360008301526148fa8185614898565b905061490960208301846148d1565b9392505050565b7f4f776e61626c653a2063616c6c6572206973206e6f7420746865206f776e6572600082015250565b6000614946602083613f14565b915061495182614910565b602082019050919050565b6000602082019050818103600083015261497581614939565b9050919050565b7f5250206d697373696e6700000000000000000000000000000000000000000000600082015250565b60006149b2600a83613f14565b91506149bd8261497c565b602082019050919050565b600060208201905081810360008301526149e1816149a5565b9050919050565b7f4a43206d697373696e6700000000000000000000000000000000000000000000600082015250565b6000614a1e600a83613f14565b9150614a29826149e8565b602082019050919050565b60006020820190508181036000830152614a4d81614a11565b9050919050565b7f536f6c766572206d697373696e67000000000000000000000000000000000000600082015250565b6000614a8a600e83613f14565b9150614a9582614a54565b602082019050919050565b60006020820190508181036000830152614ab981614a7d565b9050919050565b7f4d65646961746f7273203c3d2030000000000000000000000000000000000000600082015250565b6000614af6600e83613f14565b9150614b0182614ac0565b602082019050919050565b60006020820190508181036000830152614b2581614ae9565b9050919050565b7f5250202f204a432073616d650000000000000000000000000000000000000000600082015250565b6000614b62600c83613f14565b9150614b6d82614b2c565b602082019050919050565b60006020820190508181036000830152614b9181614b55565b9050919050565b7f4167726565206465706f736974206d7573742062652030000000000000000000600082015250565b6000614bce601783613f14565b9150614bd982614b98565b602082019050919050565b60006020820190508181036000830152614bfd81614bc1565b9050919050565b7f4d656469617465206465706f736974206d757374206265203000000000000000600082015250565b6000614c3a601983613f14565b9150614c4582614c04565b602082019050919050565b60006020820190508181036000830152614c6981614c2d565b9050919050565b7f5250000000000000000000000000000000000000000000000000000000000000600082015250565b6000614ca6600283613f14565b9150614cb182614c70565b602082019050919050565b60006020820190508181036000830152614cd581614c99565b9050919050565b7f4a43000000000000000000000000000000000000000000000000000000000000600082015250565b6000614d12600283613f14565b9150614d1d82614cdc565b602082019050919050565b60006020820190508181036000830152614d4181614d05565b9050919050565b7f536f6c7665720000000000000000000000000000000000000000000000000000600082015250565b6000614d7e600683613f14565b9150614d8982614d48565b602082019050919050565b60006020820190508181036000830152614dad81614d71565b9050919050565b7f4d65646961746f72730000000000000000000000000000000000000000000000600082015250565b6000614dea600983613f14565b9150614df582614db4565b602082019050919050565b60006020820190508181036000830152614e1981614ddd565b9050919050565b7f4e487b7100000000000000000000000000000000000000000000000000000000600052603260045260246000fd5b7f4d65646961746f72000000000000000000000000000000000000000000000000600082015250565b6000614e85600883613f14565b9150614e9082614e4f565b602082019050919050565b60006020820190508181036000830152614eb481614e78565b9050919050565b6000614ec6826134c8565b91507fffffffffffffffffffffffffffffffffffffffffffffffffffffffffffffffff8203614ef857614ef76143a6565b5b600182019050919050565b7f5072696365000000000000000000000000000000000000000000000000000000600082015250565b6000614f39600583613f14565b9150614f4482614f03565b602082019050919050565b60006020820190508181036000830152614f6881614f2c565b9050919050565b7f5061796d656e7400000000000000000000000000000000000000000000000000600082015250565b6000614fa5600783613f14565b9150614fb082614f6f565b602082019050919050565b60006020820190508181036000830152614fd481614f98565b9050919050565b7f526573756c747300000000000000000000000000000000000000000000000000600082015250565b6000615011600783613f14565b915061501c82614fdb565b602082019050919050565b6000602082019050818103600083015261504081615004565b9050919050565b7f4d6564696174696f6e0000000000000000000000000000000000000000000000600082015250565b600061507d600983613f14565b915061508882615047565b602082019050919050565b600060208201905081810360008301526150ac81615070565b9050919050565b7f54696d656f757400000000000000000000000000000000000000000000000000600082015250565b60006150e9600783613f14565b91506150f4826150b3565b602082019050919050565b60006020820190508181036000830152615118816150dc565b9050919050565b7f436f6c6c61746572616c00000000000000000000000000000000000000000000600082015250565b6000615155600a83613f14565b91506151608261511f565b602082019050919050565b6000602082019050818103600083015261518481615148565b905091905056fea26469706673582212204fa9ae9b80eb01e19e102bba51a69768feb54e222f07ae0752ea0b83c37f4f4164736f6c63430008150033",
  "devdoc": {
    "events": {
      "Initialized(uint8)": {
        "details": "Triggered when the contract has been initialized or reinitialized."
      }
    },
    "kind": "dev",
    "methods": {
      "owner()": {
        "details": "Returns the address of the current owner."
      },
      "renounceOwnership()": {
        "details": "Leaves the contract without owner. It will not be possible to call `onlyOwner` functions. Can only be called by the current owner. NOTE: Renouncing ownership will leave the contract without an owner, thereby disabling any functionality that is only available to the owner."
      },
      "transferOwnership(address)": {
        "details": "Transfers ownership of the contract to a new account (`newOwner`). Can only be called by the current owner."
      }
    },
    "version": 1
  },
  "userdoc": {
    "kind": "user",
    "methods": {
      "acceptResult(string)": {
        "notice": "Judge Results"
      },
      "getAgreement(string)": {
        "notice": "Agreements"
      },
      "getDeal(string)": {
        "notice": "Deals"
      },
      "getJobCost(string)": {
        "notice": "Costings"
      },
      "getResult(string)": {
        "notice": "Post Results"
      },
      "hasDeal(string)": {
        "notice": "Checkers"
      },
      "initialize()": {
        "notice": "Init"
      },
      "mediationAcceptResult(string)": {
        "notice": "Mediati:"
      },
      "timeoutAgree(string)": {
        "notice": "Timeouts"
      }
    },
    "version": 1
  },
  "storageLayout": {
    "storage": [
      {
        "astId": 506,
        "contract": "contracts/CoopHiveStorage.sol:CoopHiveStorage",
        "label": "_owner",
        "offset": 0,
        "slot": "0",
        "type": "t_address"
      },
      {
        "astId": 1483,
        "contract": "contracts/CoopHiveStorage.sol:CoopHiveStorage",
        "label": "controllerAddress",
        "offset": 0,
        "slot": "1",
        "type": "t_address"
      },
      {
        "astId": 1486,
        "contract": "contracts/CoopHiveStorage.sol:CoopHiveStorage",
        "label": "canChangeControllerAddress",
        "offset": 20,
        "slot": "1",
        "type": "t_bool"
      },
      {
        "astId": 6,
        "contract": "contracts/CoopHiveStorage.sol:CoopHiveStorage",
        "label": "_initialized",
        "offset": 21,
        "slot": "1",
        "type": "t_uint8"
      },
      {
        "astId": 9,
        "contract": "contracts/CoopHiveStorage.sol:CoopHiveStorage",
        "label": "_initializing",
        "offset": 22,
        "slot": "1",
        "type": "t_bool"
      },
      {
        "astId": 3941,
        "contract": "contracts/CoopHiveStorage.sol:CoopHiveStorage",
        "label": "controllerAddress",
        "offset": 0,
        "slot": "2",
        "type": "t_address"
      },
      {
        "astId": 3944,
        "contract": "contracts/CoopHiveStorage.sol:CoopHiveStorage",
        "label": "canChangeControllerAddress",
        "offset": 20,
        "slot": "2",
        "type": "t_bool"
      },
      {
        "astId": 3949,
        "contract": "contracts/CoopHiveStorage.sol:CoopHiveStorage",
        "label": "deals",
        "offset": 0,
        "slot": "3",
        "type": "t_mapping(t_string_memory_ptr,t_struct(Deal)6374_storage)"
      },
      {
        "astId": 3954,
        "contract": "contracts/CoopHiveStorage.sol:CoopHiveStorage",
        "label": "dealsForParty",
        "offset": 0,
        "slot": "4",
        "type": "t_mapping(t_address,t_array(t_string_storage)dyn_storage)"
      },
      {
        "astId": 3959,
        "contract": "contracts/CoopHiveStorage.sol:CoopHiveStorage",
        "label": "agreements",
        "offset": 0,
        "slot": "5",
        "type": "t_mapping(t_string_memory_ptr,t_struct(Agreement)6413_storage)"
      },
      {
        "astId": 3964,
        "contract": "contracts/CoopHiveStorage.sol:CoopHiveStorage",
        "label": "results",
        "offset": 0,
        "slot": "6",
        "type": "t_mapping(t_string_memory_ptr,t_struct(Result)6383_storage)"
      },
      {
        "astId": 3969,
        "contract": "contracts/CoopHiveStorage.sol:CoopHiveStorage",
        "label": "mediations",
        "offset": 0,
        "slot": "7",
        "type": "t_mapping(t_string_memory_ptr,t_struct(Result)6383_storage)"
      }
    ],
    "types": {
      "t_address": {
        "encoding": "inplace",
        "label": "address",
        "numberOfBytes": "20"
      },
      "t_array(t_address)dyn_storage": {
        "base": "t_address",
        "encoding": "dynamic_array",
        "label": "address[]",
        "numberOfBytes": "32"
      },
      "t_array(t_string_storage)dyn_storage": {
        "base": "t_string_storage",
        "encoding": "dynamic_array",
        "label": "string[]",
        "numberOfBytes": "32"
      },
      "t_bool": {
        "encoding": "inplace",
        "label": "bool",
        "numberOfBytes": "1"
      },
      "t_enum(AgreementState)6314": {
        "encoding": "inplace",
        "label": "enum SharedStructs.AgreementState",
        "numberOfBytes": "1"
      },
      "t_mapping(t_address,t_array(t_string_storage)dyn_storage)": {
        "encoding": "mapping",
        "key": "t_address",
        "label": "mapping(address => string[])",
        "numberOfBytes": "32",
        "value": "t_array(t_string_storage)dyn_storage"
      },
      "t_mapping(t_string_memory_ptr,t_struct(Agreement)6413_storage)": {
        "encoding": "mapping",
        "key": "t_string_memory_ptr",
        "label": "mapping(string => struct SharedStructs.Agreement)",
        "numberOfBytes": "32",
        "value": "t_struct(Agreement)6413_storage"
      },
      "t_mapping(t_string_memory_ptr,t_struct(Deal)6374_storage)": {
        "encoding": "mapping",
        "key": "t_string_memory_ptr",
        "label": "mapping(string => struct SharedStructs.Deal)",
        "numberOfBytes": "32",
        "value": "t_struct(Deal)6374_storage"
      },
      "t_mapping(t_string_memory_ptr,t_struct(Result)6383_storage)": {
        "encoding": "mapping",
        "key": "t_string_memory_ptr",
        "label": "mapping(string => struct SharedStructs.Result)",
        "numberOfBytes": "32",
        "value": "t_struct(Result)6383_storage"
      },
      "t_string_memory_ptr": {
        "encoding": "bytes",
        "label": "string",
        "numberOfBytes": "32"
      },
      "t_string_storage": {
        "encoding": "bytes",
        "label": "string",
        "numberOfBytes": "32"
      },
      "t_struct(Agreement)6413_storage": {
        "encoding": "inplace",
        "label": "struct SharedStructs.Agreement",
        "members": [
          {
            "astId": 6386,
            "contract": "contracts/CoopHiveStorage.sol:CoopHiveStorage",
            "label": "state",
            "offset": 0,
            "slot": "0",
            "type": "t_enum(AgreementState)6314"
          },
          {
            "astId": 6388,
            "contract": "contracts/CoopHiveStorage.sol:CoopHiveStorage",
            "label": "resourceProviderAgreedAt",
            "offset": 0,
            "slot": "1",
            "type": "t_uint256"
          },
          {
            "astId": 6390,
            "contract": "contracts/CoopHiveStorage.sol:CoopHiveStorage",
            "label": "jobCreatorAgreedAt",
            "offset": 0,
            "slot": "2",
            "type": "t_uint256"
          },
          {
            "astId": 6392,
            "contract": "contracts/CoopHiveStorage.sol:CoopHiveStorage",
            "label": "dealCreatedAt",
            "offset": 0,
            "slot": "3",
            "type": "t_uint256"
          },
          {
            "astId": 6394,
            "contract": "contracts/CoopHiveStorage.sol:CoopHiveStorage",
            "label": "dealAgreedAt",
            "offset": 0,
            "slot": "4",
            "type": "t_uint256"
          },
          {
            "astId": 6396,
            "contract": "contracts/CoopHiveStorage.sol:CoopHiveStorage",
            "label": "resultsSubmittedAt",
            "offset": 0,
            "slot": "5",
            "type": "t_uint256"
          },
          {
            "astId": 6398,
            "contract": "contracts/CoopHiveStorage.sol:CoopHiveStorage",
            "label": "resultsAcceptedAt",
            "offset": 0,
            "slot": "6",
            "type": "t_uint256"
          },
          {
            "astId": 6400,
            "contract": "contracts/CoopHiveStorage.sol:CoopHiveStorage",
            "label": "resultsCheckedAt",
            "offset": 0,
            "slot": "7",
            "type": "t_uint256"
          },
          {
            "astId": 6402,
            "contract": "contracts/CoopHiveStorage.sol:CoopHiveStorage",
            "label": "mediationAcceptedAt",
            "offset": 0,
            "slot": "8",
            "type": "t_uint256"
          },
          {
            "astId": 6404,
            "contract": "contracts/CoopHiveStorage.sol:CoopHiveStorage",
            "label": "mediationRejectedAt",
            "offset": 0,
            "slot": "9",
            "type": "t_uint256"
          },
          {
            "astId": 6406,
            "contract": "contracts/CoopHiveStorage.sol:CoopHiveStorage",
            "label": "timeoutAgreeAt",
            "offset": 0,
            "slot": "10",
            "type": "t_uint256"
          },
          {
            "astId": 6408,
            "contract": "contracts/CoopHiveStorage.sol:CoopHiveStorage",
            "label": "timeoutSubmitResultsAt",
            "offset": 0,
            "slot": "11",
            "type": "t_uint256"
          },
          {
            "astId": 6410,
            "contract": "contracts/CoopHiveStorage.sol:CoopHiveStorage",
            "label": "timeoutJudgeResultsAt",
            "offset": 0,
            "slot": "12",
            "type": "t_uint256"
          },
          {
            "astId": 6412,
            "contract": "contracts/CoopHiveStorage.sol:CoopHiveStorage",
            "label": "timeoutMediateResultsAt",
            "offset": 0,
            "slot": "13",
            "type": "t_uint256"
          }
        ],
        "numberOfBytes": "448"
      },
      "t_struct(Deal)6374_storage": {
        "encoding": "inplace",
        "label": "struct SharedStructs.Deal",
        "members": [
          {
            "astId": 6364,
            "contract": "contracts/CoopHiveStorage.sol:CoopHiveStorage",
            "label": "dealId",
            "offset": 0,
            "slot": "0",
            "type": "t_string_storage"
          },
          {
            "astId": 6367,
            "contract": "contracts/CoopHiveStorage.sol:CoopHiveStorage",
            "label": "members",
            "offset": 0,
            "slot": "1",
            "type": "t_struct(DealMembers)6335_storage"
          },
          {
            "astId": 6370,
            "contract": "contracts/CoopHiveStorage.sol:CoopHiveStorage",
            "label": "timeouts",
            "offset": 0,
            "slot": "5",
            "type": "t_struct(DealTimeouts)6353_storage"
          },
          {
            "astId": 6373,
            "contract": "contracts/CoopHiveStorage.sol:CoopHiveStorage",
            "label": "pricing",
            "offset": 0,
            "slot": "13",
            "type": "t_struct(DealPricing)6362_storage"
          }
        ],
        "numberOfBytes": "544"
      },
      "t_struct(DealMembers)6335_storage": {
        "encoding": "inplace",
        "label": "struct SharedStructs.DealMembers",
        "members": [
          {
            "astId": 6327,
            "contract": "contracts/CoopHiveStorage.sol:CoopHiveStorage",
            "label": "solver",
            "offset": 0,
            "slot": "0",
            "type": "t_address"
          },
          {
            "astId": 6329,
            "contract": "contracts/CoopHiveStorage.sol:CoopHiveStorage",
            "label": "jobCreator",
            "offset": 0,
            "slot": "1",
            "type": "t_address"
          },
          {
            "astId": 6331,
            "contract": "contracts/CoopHiveStorage.sol:CoopHiveStorage",
            "label": "resourceProvider",
            "offset": 0,
            "slot": "2",
            "type": "t_address"
          },
          {
            "astId": 6334,
            "contract": "contracts/CoopHiveStorage.sol:CoopHiveStorage",
            "label": "mediators",
            "offset": 0,
            "slot": "3",
            "type": "t_array(t_address)dyn_storage"
          }
        ],
        "numberOfBytes": "128"
      },
      "t_struct(DealPricing)6362_storage": {
        "encoding": "inplace",
        "label": "struct SharedStructs.DealPricing",
        "members": [
          {
            "astId": 6355,
            "contract": "contracts/CoopHiveStorage.sol:CoopHiveStorage",
            "label": "instructionPrice",
            "offset": 0,
            "slot": "0",
            "type": "t_uint256"
          },
          {
            "astId": 6357,
            "contract": "contracts/CoopHiveStorage.sol:CoopHiveStorage",
            "label": "paymentCollateral",
            "offset": 0,
            "slot": "1",
            "type": "t_uint256"
          },
          {
            "astId": 6359,
            "contract": "contracts/CoopHiveStorage.sol:CoopHiveStorage",
            "label": "resultsCollateralMultiple",
            "offset": 0,
            "slot": "2",
            "type": "t_uint256"
          },
          {
            "astId": 6361,
            "contract": "contracts/CoopHiveStorage.sol:CoopHiveStorage",
            "label": "mediationFee",
            "offset": 0,
            "slot": "3",
            "type": "t_uint256"
          }
        ],
        "numberOfBytes": "128"
      },
      "t_struct(DealTimeout)6340_storage": {
        "encoding": "inplace",
        "label": "struct SharedStructs.DealTimeout",
        "members": [
          {
            "astId": 6337,
            "contract": "contracts/CoopHiveStorage.sol:CoopHiveStorage",
            "label": "timeout",
            "offset": 0,
            "slot": "0",
            "type": "t_uint256"
          },
          {
            "astId": 6339,
            "contract": "contracts/CoopHiveStorage.sol:CoopHiveStorage",
            "label": "collateral",
            "offset": 0,
            "slot": "1",
            "type": "t_uint256"
          }
        ],
        "numberOfBytes": "64"
      },
      "t_struct(DealTimeouts)6353_storage": {
        "encoding": "inplace",
        "label": "struct SharedStructs.DealTimeouts",
        "members": [
          {
            "astId": 6343,
            "contract": "contracts/CoopHiveStorage.sol:CoopHiveStorage",
            "label": "agree",
            "offset": 0,
            "slot": "0",
            "type": "t_struct(DealTimeout)6340_storage"
          },
          {
            "astId": 6346,
            "contract": "contracts/CoopHiveStorage.sol:CoopHiveStorage",
            "label": "submitResults",
            "offset": 0,
            "slot": "2",
            "type": "t_struct(DealTimeout)6340_storage"
          },
          {
            "astId": 6349,
            "contract": "contracts/CoopHiveStorage.sol:CoopHiveStorage",
            "label": "judgeResults",
            "offset": 0,
            "slot": "4",
            "type": "t_struct(DealTimeout)6340_storage"
          },
          {
            "astId": 6352,
            "contract": "contracts/CoopHiveStorage.sol:CoopHiveStorage",
            "label": "mediateResults",
            "offset": 0,
            "slot": "6",
            "type": "t_struct(DealTimeout)6340_storage"
          }
        ],
        "numberOfBytes": "256"
      },
      "t_struct(Result)6383_storage": {
        "encoding": "inplace",
        "label": "struct SharedStructs.Result",
        "members": [
          {
            "astId": 6376,
            "contract": "contracts/CoopHiveStorage.sol:CoopHiveStorage",
            "label": "dealId",
            "offset": 0,
            "slot": "0",
            "type": "t_string_storage"
          },
          {
            "astId": 6378,
            "contract": "contracts/CoopHiveStorage.sol:CoopHiveStorage",
            "label": "resultsId",
            "offset": 0,
            "slot": "1",
            "type": "t_string_storage"
          },
          {
            "astId": 6380,
            "contract": "contracts/CoopHiveStorage.sol:CoopHiveStorage",
            "label": "dataId",
            "offset": 0,
            "slot": "2",
            "type": "t_string_storage"
          },
          {
            "astId": 6382,
            "contract": "contracts/CoopHiveStorage.sol:CoopHiveStorage",
            "label": "instructionCount",
            "offset": 0,
            "slot": "3",
            "type": "t_uint256"
          }
        ],
        "numberOfBytes": "128"
      },
      "t_uint256": {
        "encoding": "inplace",
        "label": "uint256",
        "numberOfBytes": "32"
      },
      "t_uint8": {
        "encoding": "inplace",
        "label": "uint8",
        "numberOfBytes": "1"
      }
    }
  }
}