{
  "_format": "hh-sol-artifact-1",
  "contractName": "Client",
  "sourceName": "contracts/Client.sol",
  "abi": [
    {
      "inputs": [
        {
          "internalType": "address",
          "name": "_jobManagerAddress",
          "type": "address"
        }
      ],
      "stateMutability": "nonpayable",
      "type": "constructor"
    },
    {
      "anonymous": false,
      "inputs": [
        {
          "indexed": false,
          "internalType": "uint256",
          "name": "id",
          "type": "uint256"
        },
        {
          "indexed": false,
          "internalType": "string",
          "name": "dealId",
          "type": "string"
        },
        {
          "indexed": false,
          "internalType": "string",
          "name": "dataId",
          "type": "string"
        }
      ],
      "name": "JobCompleted",
      "type": "event"
    },
    {
      "anonymous": false,
      "inputs": [
        {
          "indexed": false,
          "internalType": "uint256",
          "name": "id",
          "type": "uint256"
        },
        {
          "indexed": false,
          "internalType": "string",
          "name": "message",
          "type": "string"
        }
      ],
      "name": "JobCreated",
      "type": "event"
    },
    {
      "inputs": [
        {
          "internalType": "uint256",
          "name": "_jobID",
          "type": "uint256"
        }
      ],
      "name": "getJobResult",
      "outputs": [
        {
          "internalType": "string",
          "name": "",
          "type": "string"
        }
      ],
      "stateMutability": "view",
      "type": "function"
    },
    {
      "inputs": [
        {
          "internalType": "string",
          "name": "message",
          "type": "string"
        }
      ],
      "name": "runCowsay",
      "outputs": [],
      "stateMutability": "nonpayable",
      "type": "function"
    },
    {
      "inputs": [
        {
          "internalType": "address",
          "name": "_jobManagerAddress",
          "type": "address"
        }
      ],
      "name": "setJobManagerAddress",
      "outputs": [],
      "stateMutability": "nonpayable",
      "type": "function"
    },
    {
      "inputs": [
        {
          "internalType": "uint256",
          "name": "id",
          "type": "uint256"
        },
        {
          "internalType": "string",
          "name": "dealId",
          "type": "string"
        },
        {
          "internalType": "string",
          "name": "dataId",
          "type": "string"
        }
      ],
      "name": "submitResults",
      "outputs": [],
      "stateMutability": "nonpayable",
      "type": "function"
    }
  ],
  "bytecode": "0x60806040523480156200001157600080fd5b506040516200117c3803806200117c8339818101604052810190620000379190620001cf565b62000048816200004f60201b60201c565b5062000284565b600073ffffffffffffffffffffffffffffffffffffffff168173ffffffffffffffffffffffffffffffffffffffff1603620000c1576040517f08c379a0000000000000000000000000000000000000000000000000000000008152600401620000b89062000262565b60405180910390fd5b806000806101000a81548173ffffffffffffffffffffffffffffffffffffffff021916908373ffffffffffffffffffffffffffffffffffffffff16021790555060008054906101000a900473ffffffffffffffffffffffffffffffffffffffff16600160006101000a81548173ffffffffffffffffffffffffffffffffffffffff021916908373ffffffffffffffffffffffffffffffffffffffff16021790555050565b600080fd5b600073ffffffffffffffffffffffffffffffffffffffff82169050919050565b600062000197826200016a565b9050919050565b620001a9816200018a565b8114620001b557600080fd5b50565b600081519050620001c9816200019e565b92915050565b600060208284031215620001e857620001e762000165565b5b6000620001f884828501620001b8565b91505092915050565b600082825260208201905092915050565b7f4a6f62206d616e61676572206164647265737300000000000000000000000000600082015250565b60006200024a60138362000201565b9150620002578262000212565b602082019050919050565b600060208201905081810360008301526200027d816200023b565b9050919050565b610ee880620002946000396000f3fe608060405234801561001057600080fd5b506004361061004c5760003560e01c80633b89dcab146100515780636c0f1f5814610081578063cabc00d11461009d578063ec67df4c146100b9575b600080fd5b61006b600480360381019061006691906104ac565b6100d5565b6040516100789190610569565b60405180910390f35b61009b600480360381019061009691906106c0565b61017a565b005b6100b760048036038101906100b2919061074b565b6101db565b005b6100d360048036038101906100ce91906107f2565b61034f565b005b60606002600083815260200190815260200160002080546100f59061084e565b80601f01602080910402602001604051908101604052809291908181526020018280546101219061084e565b801561016e5780601f106101435761010080835404028352916020019161016e565b820191906000526020600020905b81548152906001019060200180831161015157829003601f168201915b50505050509050919050565b8060026000858152602001908152602001600020908161019a9190610a2b565b507f3849c58b4b39b379bddc5973e71a10ded174f54140916d81986c7eec092e5c428383836040516101ce93929190610b0c565b60405180910390a1505050565b6000600167ffffffffffffffff8111156101f8576101f7610595565b5b60405190808252806020026020018201604052801561022b57816020015b60608152602001906001900390816102165790505b5090508160405160200161023f9190610bd9565b6040516020818303038152906040528160008151811061026257610261610bfb565b5b60200260200101819052506000600160009054906101000a900473ffffffffffffffffffffffffffffffffffffffff1673ffffffffffffffffffffffffffffffffffffffff1663c75555fa83336040518363ffffffff1660e01b81526004016102cc929190610d91565b6020604051808303816000875af11580156102eb573d6000803e3d6000fd5b505050506040513d601f19601f8201168201806040525081019061030f9190610de9565b90507fb63f0fdfb200b05c8b95fb4dcf8f8abd30f0b6884d532792e705afab4f37380a8184604051610342929190610e16565b60405180910390a1505050565b600073ffffffffffffffffffffffffffffffffffffffff168173ffffffffffffffffffffffffffffffffffffffff16036103be576040517f08c379a00000000000000000000000000000000000000000000000000000000081526004016103b590610e92565b60405180910390fd5b806000806101000a81548173ffffffffffffffffffffffffffffffffffffffff021916908373ffffffffffffffffffffffffffffffffffffffff16021790555060008054906101000a900473ffffffffffffffffffffffffffffffffffffffff16600160006101000a81548173ffffffffffffffffffffffffffffffffffffffff021916908373ffffffffffffffffffffffffffffffffffffffff16021790555050565b6000604051905090565b600080fd5b600080fd5b6000819050919050565b61048981610476565b811461049457600080fd5b50565b6000813590506104a681610480565b92915050565b6000602082840312156104c2576104c161046c565b5b60006104d084828501610497565b91505092915050565b600081519050919050565b600082825260208201905092915050565b60005b838110156105135780820151818401526020810190506104f8565b60008484015250505050565b6000601f19601f8301169050919050565b600061053b826104d9565b61054581856104e4565b93506105558185602086016104f5565b61055e8161051f565b840191505092915050565b600060208201905081810360008301526105838184610530565b905092915050565b600080fd5b600080fd5b7f4e487b7100000000000000000000000000000000000000000000000000000000600052604160045260246000fd5b6105cd8261051f565b810181811067ffffffffffffffff821117156105ec576105eb610595565b5b80604052505050565b60006105ff610462565b905061060b82826105c4565b919050565b600067ffffffffffffffff82111561062b5761062a610595565b5b6106348261051f565b9050602081019050919050565b82818337600083830152505050565b600061066361065e84610610565b6105f5565b90508281526020810184848401111561067f5761067e610590565b5b61068a848285610641565b509392505050565b600082601f8301126106a7576106a661058b565b5b81356106b7848260208601610650565b91505092915050565b6000806000606084860312156106d9576106d861046c565b5b60006106e786828701610497565b935050602084013567ffffffffffffffff81111561070857610707610471565b5b61071486828701610692565b925050604084013567ffffffffffffffff81111561073557610734610471565b5b61074186828701610692565b9150509250925092565b6000602082840312156107615761076061046c565b5b600082013567ffffffffffffffff81111561077f5761077e610471565b5b61078b84828501610692565b91505092915050565b600073ffffffffffffffffffffffffffffffffffffffff82169050919050565b60006107bf82610794565b9050919050565b6107cf816107b4565b81146107da57600080fd5b50565b6000813590506107ec816107c6565b92915050565b6000602082840312156108085761080761046c565b5b6000610816848285016107dd565b91505092915050565b7f4e487b7100000000000000000000000000000000000000000000000000000000600052602260045260246000fd5b6000600282049050600182168061086657607f821691505b6020821081036108795761087861081f565b5b50919050565b60008190508160005260206000209050919050565b60006020601f8301049050919050565b600082821b905092915050565b6000600883026108e17fffffffffffffffffffffffffffffffffffffffffffffffffffffffffffffffff826108a4565b6108eb86836108a4565b95508019841693508086168417925050509392505050565b6000819050919050565b600061092861092361091e84610476565b610903565b610476565b9050919050565b6000819050919050565b6109428361090d565b61095661094e8261092f565b8484546108b1565b825550505050565b600090565b61096b61095e565b610976818484610939565b505050565b5b8181101561099a5761098f600082610963565b60018101905061097c565b5050565b601f8211156109df576109b08161087f565b6109b984610894565b810160208510156109c8578190505b6109dc6109d485610894565b83018261097b565b50505b505050565b600082821c905092915050565b6000610a02600019846008026109e4565b1980831691505092915050565b6000610a1b83836109f1565b9150826002028217905092915050565b610a34826104d9565b67ffffffffffffffff811115610a4d57610a4c610595565b5b610a57825461084e565b610a6282828561099e565b600060209050601f831160018114610a955760008415610a83578287015190505b610a8d8582610a0f565b865550610af5565b601f198416610aa38661087f565b60005b82811015610acb57848901518255600182019150602085019450602081019050610aa6565b86831015610ae85784890151610ae4601f8916826109f1565b8355505b6001600288020188555050505b505050505050565b610b0681610476565b82525050565b6000606082019050610b216000830186610afd565b8181036020830152610b338185610530565b90508181036040830152610b478184610530565b9050949350505050565b600081905092915050565b7f4d6573736167653d000000000000000000000000000000000000000000000000600082015250565b6000610b92600883610b51565b9150610b9d82610b5c565b600882019050919050565b6000610bb3826104d9565b610bbd8185610b51565b9350610bcd8185602086016104f5565b80840191505092915050565b6000610be482610b85565b9150610bf08284610ba8565b915081905092915050565b7f4e487b7100000000000000000000000000000000000000000000000000000000600052603260045260246000fd5b7f636f777361793a76302e302e3100000000000000000000000000000000000000600082015250565b6000610c60600d836104e4565b9150610c6b82610c2a565b602082019050919050565b600081519050919050565b600082825260208201905092915050565b6000819050602082019050919050565b600082825260208201905092915050565b6000610cbe826104d9565b610cc88185610ca2565b9350610cd88185602086016104f5565b610ce18161051f565b840191505092915050565b6000610cf88383610cb3565b905092915050565b6000602082019050919050565b6000610d1882610c76565b610d228185610c81565b935083602082028501610d3485610c92565b8060005b85811015610d705784840389528151610d518582610cec565b9450610d5c83610d00565b925060208a01995050600181019050610d38565b50829750879550505050505092915050565b610d8b816107b4565b82525050565b60006060820190508181036000830152610daa81610c53565b90508181036020830152610dbe8185610d0d565b9050610dcd6040830184610d82565b9392505050565b600081519050610de381610480565b92915050565b600060208284031215610dff57610dfe61046c565b5b6000610e0d84828501610dd4565b91505092915050565b6000604082019050610e2b6000830185610afd565b8181036020830152610e3d8184610530565b90509392505050565b7f4a6f62206d616e61676572206164647265737300000000000000000000000000600082015250565b6000610e7c6013836104e4565b9150610e8782610e46565b602082019050919050565b60006020820190508181036000830152610eab81610e6f565b905091905056fea264697066735822122080430910643890f3196ee9708e98116720bd349760d8fce0ac477f2ad84e3d8564736f6c63430008180033",
  "linkReferences": {},
  "deployedLinkReferences": {}
}