{
  "contracts/Client.sol": {
    "Client": {
      "abi": [
        {
          "inputs": [
            {
              "internalType": "address",
              "name": "_jobManagerAddress",
              "type": "address"
            }
          ],
          "stateMutability": "nonpayable",
          "type": "constructor"
        },
        {
          "anonymous": false,
          "inputs": [
            {
              "indexed": false,
              "internalType": "uint256",
              "name": "id",
              "type": "uint256"
            },
            {
              "indexed": false,
              "internalType": "string",
              "name": "dealId",
              "type": "string"
            },
            {
              "indexed": false,
              "internalType": "string",
              "name": "dataId",
              "type": "string"
            }
          ],
          "name": "JobCompleted",
          "type": "event"
        },
        {
          "anonymous": false,
          "inputs": [
            {
              "indexed": false,
              "internalType": "uint256",
              "name": "id",
              "type": "uint256"
            },
            {
              "indexed": false,
              "internalType": "string",
              "name": "message",
              "type": "string"
            }
          ],
          "name": "JobCreated",
          "type": "event"
        },
        {
          "inputs": [
            {
              "internalType": "uint256",
              "name": "_jobID",
              "type": "uint256"
            }
          ],
          "name": "getJobResult",
          "outputs": [
            {
              "internalType": "string",
              "name": "",
              "type": "string"
            }
          ],
          "stateMutability": "view",
          "type": "function"
        },
        {
          "inputs": [
            {
              "internalType": "string",
              "name": "message",
              "type": "string"
            }
          ],
          "name": "runCowsay",
          "outputs": [],
          "stateMutability": "nonpayable",
          "type": "function"
        },
        {
          "inputs": [
            {
              "internalType": "address",
              "name": "_jobManagerAddress",
              "type": "address"
            }
          ],
          "name": "setJobManagerAddress",
          "outputs": [],
          "stateMutability": "nonpayable",
          "type": "function"
        },
        {
          "inputs": [
            {
              "internalType": "uint256",
              "name": "id",
              "type": "uint256"
            },
            {
              "internalType": "string",
              "name": "dealId",
              "type": "string"
            },
            {
              "internalType": "string",
              "name": "dataId",
              "type": "string"
            }
          ],
          "name": "submitResults",
          "outputs": [],
          "stateMutability": "nonpayable",
          "type": "function"
        }
      ],
      "evm": {
        "bytecode": {
          "linkReferences": {},
          "object": "60806040523480156200001157600080fd5b506040516200117c3803806200117c8339818101604052810190620000379190620001cf565b62000048816200004f60201b60201c565b5062000284565b600073ffffffffffffffffffffffffffffffffffffffff168173ffffffffffffffffffffffffffffffffffffffff1603620000c1576040517f08c379a0000000000000000000000000000000000000000000000000000000008152600401620000b89062000262565b60405180910390fd5b806000806101000a81548173ffffffffffffffffffffffffffffffffffffffff021916908373ffffffffffffffffffffffffffffffffffffffff16021790555060008054906101000a900473ffffffffffffffffffffffffffffffffffffffff16600160006101000a81548173ffffffffffffffffffffffffffffffffffffffff021916908373ffffffffffffffffffffffffffffffffffffffff16021790555050565b600080fd5b600073ffffffffffffffffffffffffffffffffffffffff82169050919050565b600062000197826200016a565b9050919050565b620001a9816200018a565b8114620001b557600080fd5b50565b600081519050620001c9816200019e565b92915050565b600060208284031215620001e857620001e762000165565b5b6000620001f884828501620001b8565b91505092915050565b600082825260208201905092915050565b7f4a6f62206d616e61676572206164647265737300000000000000000000000000600082015250565b60006200024a60138362000201565b9150620002578262000212565b602082019050919050565b600060208201905081810360008301526200027d816200023b565b9050919050565b610ee880620002946000396000f3fe608060405234801561001057600080fd5b506004361061004c5760003560e01c80633b89dcab146100515780636c0f1f5814610081578063cabc00d11461009d578063ec67df4c146100b9575b600080fd5b61006b600480360381019061006691906104ac565b6100d5565b6040516100789190610569565b60405180910390f35b61009b600480360381019061009691906106c0565b61017a565b005b6100b760048036038101906100b2919061074b565b6101db565b005b6100d360048036038101906100ce91906107f2565b61034f565b005b60606002600083815260200190815260200160002080546100f59061084e565b80601f01602080910402602001604051908101604052809291908181526020018280546101219061084e565b801561016e5780601f106101435761010080835404028352916020019161016e565b820191906000526020600020905b81548152906001019060200180831161015157829003601f168201915b50505050509050919050565b8060026000858152602001908152602001600020908161019a9190610a2b565b507f3849c58b4b39b379bddc5973e71a10ded174f54140916d81986c7eec092e5c428383836040516101ce93929190610b0c565b60405180910390a1505050565b6000600167ffffffffffffffff8111156101f8576101f7610595565b5b60405190808252806020026020018201604052801561022b57816020015b60608152602001906001900390816102165790505b5090508160405160200161023f9190610bd9565b6040516020818303038152906040528160008151811061026257610261610bfb565b5b60200260200101819052506000600160009054906101000a900473ffffffffffffffffffffffffffffffffffffffff1673ffffffffffffffffffffffffffffffffffffffff1663c75555fa83336040518363ffffffff1660e01b81526004016102cc929190610d91565b6020604051808303816000875af11580156102eb573d6000803e3d6000fd5b505050506040513d601f19601f8201168201806040525081019061030f9190610de9565b90507fb63f0fdfb200b05c8b95fb4dcf8f8abd30f0b6884d532792e705afab4f37380a8184604051610342929190610e16565b60405180910390a1505050565b600073ffffffffffffffffffffffffffffffffffffffff168173ffffffffffffffffffffffffffffffffffffffff16036103be576040517f08c379a00000000000000000000000000000000000000000000000000000000081526004016103b590610e92565b60405180910390fd5b806000806101000a81548173ffffffffffffffffffffffffffffffffffffffff021916908373ffffffffffffffffffffffffffffffffffffffff16021790555060008054906101000a900473ffffffffffffffffffffffffffffffffffffffff16600160006101000a81548173ffffffffffffffffffffffffffffffffffffffff021916908373ffffffffffffffffffffffffffffffffffffffff16021790555050565b6000604051905090565b600080fd5b600080fd5b6000819050919050565b61048981610476565b811461049457600080fd5b50565b6000813590506104a681610480565b92915050565b6000602082840312156104c2576104c161046c565b5b60006104d084828501610497565b91505092915050565b600081519050919050565b600082825260208201905092915050565b60005b838110156105135780820151818401526020810190506104f8565b60008484015250505050565b6000601f19601f8301169050919050565b600061053b826104d9565b61054581856104e4565b93506105558185602086016104f5565b61055e8161051f565b840191505092915050565b600060208201905081810360008301526105838184610530565b905092915050565b600080fd5b600080fd5b7f4e487b7100000000000000000000000000000000000000000000000000000000600052604160045260246000fd5b6105cd8261051f565b810181811067ffffffffffffffff821117156105ec576105eb610595565b5b80604052505050565b60006105ff610462565b905061060b82826105c4565b919050565b600067ffffffffffffffff82111561062b5761062a610595565b5b6106348261051f565b9050602081019050919050565b82818337600083830152505050565b600061066361065e84610610565b6105f5565b90508281526020810184848401111561067f5761067e610590565b5b61068a848285610641565b509392505050565b600082601f8301126106a7576106a661058b565b5b81356106b7848260208601610650565b91505092915050565b6000806000606084860312156106d9576106d861046c565b5b60006106e786828701610497565b935050602084013567ffffffffffffffff81111561070857610707610471565b5b61071486828701610692565b925050604084013567ffffffffffffffff81111561073557610734610471565b5b61074186828701610692565b9150509250925092565b6000602082840312156107615761076061046c565b5b600082013567ffffffffffffffff81111561077f5761077e610471565b5b61078b84828501610692565b91505092915050565b600073ffffffffffffffffffffffffffffffffffffffff82169050919050565b60006107bf82610794565b9050919050565b6107cf816107b4565b81146107da57600080fd5b50565b6000813590506107ec816107c6565b92915050565b6000602082840312156108085761080761046c565b5b6000610816848285016107dd565b91505092915050565b7f4e487b7100000000000000000000000000000000000000000000000000000000600052602260045260246000fd5b6000600282049050600182168061086657607f821691505b6020821081036108795761087861081f565b5b50919050565b60008190508160005260206000209050919050565b60006020601f8301049050919050565b600082821b905092915050565b6000600883026108e17fffffffffffffffffffffffffffffffffffffffffffffffffffffffffffffffff826108a4565b6108eb86836108a4565b95508019841693508086168417925050509392505050565b6000819050919050565b600061092861092361091e84610476565b610903565b610476565b9050919050565b6000819050919050565b6109428361090d565b61095661094e8261092f565b8484546108b1565b825550505050565b600090565b61096b61095e565b610976818484610939565b505050565b5b8181101561099a5761098f600082610963565b60018101905061097c565b5050565b601f8211156109df576109b08161087f565b6109b984610894565b810160208510156109c8578190505b6109dc6109d485610894565b83018261097b565b50505b505050565b600082821c905092915050565b6000610a02600019846008026109e4565b1980831691505092915050565b6000610a1b83836109f1565b9150826002028217905092915050565b610a34826104d9565b67ffffffffffffffff811115610a4d57610a4c610595565b5b610a57825461084e565b610a6282828561099e565b600060209050601f831160018114610a955760008415610a83578287015190505b610a8d8582610a0f565b865550610af5565b601f198416610aa38661087f565b60005b82811015610acb57848901518255600182019150602085019450602081019050610aa6565b86831015610ae85784890151610ae4601f8916826109f1565b8355505b6001600288020188555050505b505050505050565b610b0681610476565b82525050565b6000606082019050610b216000830186610afd565b8181036020830152610b338185610530565b90508181036040830152610b478184610530565b9050949350505050565b600081905092915050565b7f4d6573736167653d000000000000000000000000000000000000000000000000600082015250565b6000610b92600883610b51565b9150610b9d82610b5c565b600882019050919050565b6000610bb3826104d9565b610bbd8185610b51565b9350610bcd8185602086016104f5565b80840191505092915050565b6000610be482610b85565b9150610bf08284610ba8565b915081905092915050565b7f4e487b7100000000000000000000000000000000000000000000000000000000600052603260045260246000fd5b7f636f777361793a76302e302e3100000000000000000000000000000000000000600082015250565b6000610c60600d836104e4565b9150610c6b82610c2a565b602082019050919050565b600081519050919050565b600082825260208201905092915050565b6000819050602082019050919050565b600082825260208201905092915050565b6000610cbe826104d9565b610cc88185610ca2565b9350610cd88185602086016104f5565b610ce18161051f565b840191505092915050565b6000610cf88383610cb3565b905092915050565b6000602082019050919050565b6000610d1882610c76565b610d228185610c81565b935083602082028501610d3485610c92565b8060005b85811015610d705784840389528151610d518582610cec565b9450610d5c83610d00565b925060208a01995050600181019050610d38565b50829750879550505050505092915050565b610d8b816107b4565b82525050565b60006060820190508181036000830152610daa81610c53565b90508181036020830152610dbe8185610d0d565b9050610dcd6040830184610d82565b9392505050565b600081519050610de381610480565b92915050565b600060208284031215610dff57610dfe61046c565b5b6000610e0d84828501610dd4565b91505092915050565b6000604082019050610e2b6000830185610afd565b8181036020830152610e3d8184610530565b90509392505050565b7f4a6f62206d616e61676572206164647265737300000000000000000000000000600082015250565b6000610e7c6013836104e4565b9150610e8782610e46565b602082019050919050565b60006020820190508181036000830152610eab81610e6f565b905091905056fea264697066735822122080430910643890f3196ee9708e98116720bd349760d8fce0ac477f2ad84e3d8564736f6c63430008180033",
          "opcodes": "PUSH1 0x80 PUSH1 0x40 MSTORE CALLVALUE DUP1 ISZERO PUSH3 0x11 JUMPI PUSH1 0x0 DUP1 REVERT JUMPDEST POP PUSH1 0x40 MLOAD PUSH3 0x117C CODESIZE SUB DUP1 PUSH3 0x117C DUP4 CODECOPY DUP2 DUP2 ADD PUSH1 0x40 MSTORE DUP2 ADD SWAP1 PUSH3 0x37 SWAP2 SWAP1 PUSH3 0x1CF JUMP JUMPDEST PUSH3 0x48 DUP2 PUSH3 0x4F PUSH1 0x20 SHL PUSH1 0x20 SHR JUMP JUMPDEST POP PUSH3 0x284 JUMP JUMPDEST PUSH1 0x0 PUSH20 0xFFFFFFFFFFFFFFFFFFFFFFFFFFFFFFFFFFFFFFFF AND DUP2 PUSH20 0xFFFFFFFFFFFFFFFFFFFFFFFFFFFFFFFFFFFFFFFF AND SUB PUSH3 0xC1 JUMPI PUSH1 0x40 MLOAD PUSH32 0x8C379A000000000000000000000000000000000000000000000000000000000 DUP2 MSTORE PUSH1 0x4 ADD PUSH3 0xB8 SWAP1 PUSH3 0x262 JUMP JUMPDEST PUSH1 0x40 MLOAD DUP1 SWAP2 SUB SWAP1 REVERT JUMPDEST DUP1 PUSH1 0x0 DUP1 PUSH2 0x100 EXP DUP2 SLOAD DUP2 PUSH20 0xFFFFFFFFFFFFFFFFFFFFFFFFFFFFFFFFFFFFFFFF MUL NOT AND SWAP1 DUP4 PUSH20 0xFFFFFFFFFFFFFFFFFFFFFFFFFFFFFFFFFFFFFFFF AND MUL OR SWAP1 SSTORE POP PUSH1 0x0 DUP1 SLOAD SWAP1 PUSH2 0x100 EXP SWAP1 DIV PUSH20 0xFFFFFFFFFFFFFFFFFFFFFFFFFFFFFFFFFFFFFFFF AND PUSH1 0x1 PUSH1 0x0 PUSH2 0x100 EXP DUP2 SLOAD DUP2 PUSH20 0xFFFFFFFFFFFFFFFFFFFFFFFFFFFFFFFFFFFFFFFF MUL NOT AND SWAP1 DUP4 PUSH20 0xFFFFFFFFFFFFFFFFFFFFFFFFFFFFFFFFFFFFFFFF AND MUL OR SWAP1 SSTORE POP POP JUMP JUMPDEST PUSH1 0x0 DUP1 REVERT JUMPDEST PUSH1 0x0 PUSH20 0xFFFFFFFFFFFFFFFFFFFFFFFFFFFFFFFFFFFFFFFF DUP3 AND SWAP1 POP SWAP2 SWAP1 POP JUMP JUMPDEST PUSH1 0x0 PUSH3 0x197 DUP3 PUSH3 0x16A JUMP JUMPDEST SWAP1 POP SWAP2 SWAP1 POP JUMP JUMPDEST PUSH3 0x1A9 DUP2 PUSH3 0x18A JUMP JUMPDEST DUP2 EQ PUSH3 0x1B5 JUMPI PUSH1 0x0 DUP1 REVERT JUMPDEST POP JUMP JUMPDEST PUSH1 0x0 DUP2 MLOAD SWAP1 POP PUSH3 0x1C9 DUP2 PUSH3 0x19E JUMP JUMPDEST SWAP3 SWAP2 POP POP JUMP JUMPDEST PUSH1 0x0 PUSH1 0x20 DUP3 DUP5 SUB SLT ISZERO PUSH3 0x1E8 JUMPI PUSH3 0x1E7 PUSH3 0x165 JUMP JUMPDEST JUMPDEST PUSH1 0x0 PUSH3 0x1F8 DUP5 DUP3 DUP6 ADD PUSH3 0x1B8 JUMP JUMPDEST SWAP2 POP POP SWAP3 SWAP2 POP POP JUMP JUMPDEST PUSH1 0x0 DUP3 DUP3 MSTORE PUSH1 0x20 DUP3 ADD SWAP1 POP SWAP3 SWAP2 POP POP JUMP JUMPDEST PUSH32 0x4A6F62206D616E61676572206164647265737300000000000000000000000000 PUSH1 0x0 DUP3 ADD MSTORE POP JUMP JUMPDEST PUSH1 0x0 PUSH3 0x24A PUSH1 0x13 DUP4 PUSH3 0x201 JUMP JUMPDEST SWAP2 POP PUSH3 0x257 DUP3 PUSH3 0x212 JUMP JUMPDEST PUSH1 0x20 DUP3 ADD SWAP1 POP SWAP2 SWAP1 POP JUMP JUMPDEST PUSH1 0x0 PUSH1 0x20 DUP3 ADD SWAP1 POP DUP2 DUP2 SUB PUSH1 0x0 DUP4 ADD MSTORE PUSH3 0x27D DUP2 PUSH3 0x23B JUMP JUMPDEST SWAP1 POP SWAP2 SWAP1 POP JUMP JUMPDEST PUSH2 0xEE8 DUP1 PUSH3 0x294 PUSH1 0x0 CODECOPY PUSH1 0x0 RETURN INVALID PUSH1 0x80 PUSH1 0x40 MSTORE CALLVALUE DUP1 ISZERO PUSH2 0x10 JUMPI PUSH1 0x0 DUP1 REVERT JUMPDEST POP PUSH1 0x4 CALLDATASIZE LT PUSH2 0x4C JUMPI PUSH1 0x0 CALLDATALOAD PUSH1 0xE0 SHR DUP1 PUSH4 0x3B89DCAB EQ PUSH2 0x51 JUMPI DUP1 PUSH4 0x6C0F1F58 EQ PUSH2 0x81 JUMPI DUP1 PUSH4 0xCABC00D1 EQ PUSH2 0x9D JUMPI DUP1 PUSH4 0xEC67DF4C EQ PUSH2 0xB9 JUMPI JUMPDEST PUSH1 0x0 DUP1 REVERT JUMPDEST PUSH2 0x6B PUSH1 0x4 DUP1 CALLDATASIZE SUB DUP2 ADD SWAP1 PUSH2 0x66 SWAP2 SWAP1 PUSH2 0x4AC JUMP JUMPDEST PUSH2 0xD5 JUMP JUMPDEST PUSH1 0x40 MLOAD PUSH2 0x78 SWAP2 SWAP1 PUSH2 0x569 JUMP JUMPDEST PUSH1 0x40 MLOAD DUP1 SWAP2 SUB SWAP1 RETURN JUMPDEST PUSH2 0x9B PUSH1 0x4 DUP1 CALLDATASIZE SUB DUP2 ADD SWAP1 PUSH2 0x96 SWAP2 SWAP1 PUSH2 0x6C0 JUMP JUMPDEST PUSH2 0x17A JUMP JUMPDEST STOP JUMPDEST PUSH2 0xB7 PUSH1 0x4 DUP1 CALLDATASIZE SUB DUP2 ADD SWAP1 PUSH2 0xB2 SWAP2 SWAP1 PUSH2 0x74B JUMP JUMPDEST PUSH2 0x1DB JUMP JUMPDEST STOP JUMPDEST PUSH2 0xD3 PUSH1 0x4 DUP1 CALLDATASIZE SUB DUP2 ADD SWAP1 PUSH2 0xCE SWAP2 SWAP1 PUSH2 0x7F2 JUMP JUMPDEST PUSH2 0x34F JUMP JUMPDEST STOP JUMPDEST PUSH1 0x60 PUSH1 0x2 PUSH1 0x0 DUP4 DUP2 MSTORE PUSH1 0x20 ADD SWAP1 DUP2 MSTORE PUSH1 0x20 ADD PUSH1 0x0 KECCAK256 DUP1 SLOAD PUSH2 0xF5 SWAP1 PUSH2 0x84E JUMP JUMPDEST DUP1 PUSH1 0x1F ADD PUSH1 0x20 DUP1 SWAP2 DIV MUL PUSH1 0x20 ADD PUSH1 0x40 MLOAD SWAP1 DUP2 ADD PUSH1 0x40 MSTORE DUP1 SWAP3 SWAP2 SWAP1 DUP2 DUP2 MSTORE PUSH1 0x20 ADD DUP3 DUP1 SLOAD PUSH2 0x121 SWAP1 PUSH2 0x84E JUMP JUMPDEST DUP1 ISZERO PUSH2 0x16E JUMPI DUP1 PUSH1 0x1F LT PUSH2 0x143 JUMPI PUSH2 0x100 DUP1 DUP4 SLOAD DIV MUL DUP4 MSTORE SWAP2 PUSH1 0x20 ADD SWAP2 PUSH2 0x16E JUMP JUMPDEST DUP3 ADD SWAP2 SWAP1 PUSH1 0x0 MSTORE PUSH1 0x20 PUSH1 0x0 KECCAK256 SWAP1 JUMPDEST DUP2 SLOAD DUP2 MSTORE SWAP1 PUSH1 0x1 ADD SWAP1 PUSH1 0x20 ADD DUP1 DUP4 GT PUSH2 0x151 JUMPI DUP3 SWAP1 SUB PUSH1 0x1F AND DUP3 ADD SWAP2 JUMPDEST POP POP POP POP POP SWAP1 POP SWAP2 SWAP1 POP JUMP JUMPDEST DUP1 PUSH1 0x2 PUSH1 0x0 DUP6 DUP2 MSTORE PUSH1 0x20 ADD SWAP1 DUP2 MSTORE PUSH1 0x20 ADD PUSH1 0x0 KECCAK256 SWAP1 DUP2 PUSH2 0x19A SWAP2 SWAP1 PUSH2 0xA2B JUMP JUMPDEST POP PUSH32 0x3849C58B4B39B379BDDC5973E71A10DED174F54140916D81986C7EEC092E5C42 DUP4 DUP4 DUP4 PUSH1 0x40 MLOAD PUSH2 0x1CE SWAP4 SWAP3 SWAP2 SWAP1 PUSH2 0xB0C JUMP JUMPDEST PUSH1 0x40 MLOAD DUP1 SWAP2 SUB SWAP1 LOG1 POP POP POP JUMP JUMPDEST PUSH1 0x0 PUSH1 0x1 PUSH8 0xFFFFFFFFFFFFFFFF DUP2 GT ISZERO PUSH2 0x1F8 JUMPI PUSH2 0x1F7 PUSH2 0x595 JUMP JUMPDEST JUMPDEST PUSH1 0x40 MLOAD SWAP1 DUP1 DUP3 MSTORE DUP1 PUSH1 0x20 MUL PUSH1 0x20 ADD DUP3 ADD PUSH1 0x40 MSTORE DUP1 ISZERO PUSH2 0x22B JUMPI DUP2 PUSH1 0x20 ADD JUMPDEST PUSH1 0x60 DUP2 MSTORE PUSH1 0x20 ADD SWAP1 PUSH1 0x1 SWAP1 SUB SWAP1 DUP2 PUSH2 0x216 JUMPI SWAP1 POP JUMPDEST POP SWAP1 POP DUP2 PUSH1 0x40 MLOAD PUSH1 0x20 ADD PUSH2 0x23F SWAP2 SWAP1 PUSH2 0xBD9 JUMP JUMPDEST PUSH1 0x40 MLOAD PUSH1 0x20 DUP2 DUP4 SUB SUB DUP2 MSTORE SWAP1 PUSH1 0x40 MSTORE DUP2 PUSH1 0x0 DUP2 MLOAD DUP2 LT PUSH2 0x262 JUMPI PUSH2 0x261 PUSH2 0xBFB JUMP JUMPDEST JUMPDEST PUSH1 0x20 MUL PUSH1 0x20 ADD ADD DUP2 SWAP1 MSTORE POP PUSH1 0x0 PUSH1 0x1 PUSH1 0x0 SWAP1 SLOAD SWAP1 PUSH2 0x100 EXP SWAP1 DIV PUSH20 0xFFFFFFFFFFFFFFFFFFFFFFFFFFFFFFFFFFFFFFFF AND PUSH20 0xFFFFFFFFFFFFFFFFFFFFFFFFFFFFFFFFFFFFFFFF AND PUSH4 0xC75555FA DUP4 CALLER PUSH1 0x40 MLOAD DUP4 PUSH4 0xFFFFFFFF AND PUSH1 0xE0 SHL DUP2 MSTORE PUSH1 0x4 ADD PUSH2 0x2CC SWAP3 SWAP2 SWAP1 PUSH2 0xD91 JUMP JUMPDEST PUSH1 0x20 PUSH1 0x40 MLOAD DUP1 DUP4 SUB DUP2 PUSH1 0x0 DUP8 GAS CALL ISZERO DUP1 ISZERO PUSH2 0x2EB JUMPI RETURNDATASIZE PUSH1 0x0 DUP1 RETURNDATACOPY RETURNDATASIZE PUSH1 0x0 REVERT JUMPDEST POP POP POP POP PUSH1 0x40 MLOAD RETURNDATASIZE PUSH1 0x1F NOT PUSH1 0x1F DUP3 ADD AND DUP3 ADD DUP1 PUSH1 0x40 MSTORE POP DUP2 ADD SWAP1 PUSH2 0x30F SWAP2 SWAP1 PUSH2 0xDE9 JUMP JUMPDEST SWAP1 POP PUSH32 0xB63F0FDFB200B05C8B95FB4DCF8F8ABD30F0B6884D532792E705AFAB4F37380A DUP2 DUP5 PUSH1 0x40 MLOAD PUSH2 0x342 SWAP3 SWAP2 SWAP1 PUSH2 0xE16 JUMP JUMPDEST PUSH1 0x40 MLOAD DUP1 SWAP2 SUB SWAP1 LOG1 POP POP POP JUMP JUMPDEST PUSH1 0x0 PUSH20 0xFFFFFFFFFFFFFFFFFFFFFFFFFFFFFFFFFFFFFFFF AND DUP2 PUSH20 0xFFFFFFFFFFFFFFFFFFFFFFFFFFFFFFFFFFFFFFFF AND SUB PUSH2 0x3BE JUMPI PUSH1 0x40 MLOAD PUSH32 0x8C379A000000000000000000000000000000000000000000000000000000000 DUP2 MSTORE PUSH1 0x4 ADD PUSH2 0x3B5 SWAP1 PUSH2 0xE92 JUMP JUMPDEST PUSH1 0x40 MLOAD DUP1 SWAP2 SUB SWAP1 REVERT JUMPDEST DUP1 PUSH1 0x0 DUP1 PUSH2 0x100 EXP DUP2 SLOAD DUP2 PUSH20 0xFFFFFFFFFFFFFFFFFFFFFFFFFFFFFFFFFFFFFFFF MUL NOT AND SWAP1 DUP4 PUSH20 0xFFFFFFFFFFFFFFFFFFFFFFFFFFFFFFFFFFFFFFFF AND MUL OR SWAP1 SSTORE POP PUSH1 0x0 DUP1 SLOAD SWAP1 PUSH2 0x100 EXP SWAP1 DIV PUSH20 0xFFFFFFFFFFFFFFFFFFFFFFFFFFFFFFFFFFFFFFFF AND PUSH1 0x1 PUSH1 0x0 PUSH2 0x100 EXP DUP2 SLOAD DUP2 PUSH20 0xFFFFFFFFFFFFFFFFFFFFFFFFFFFFFFFFFFFFFFFF MUL NOT AND SWAP1 DUP4 PUSH20 0xFFFFFFFFFFFFFFFFFFFFFFFFFFFFFFFFFFFFFFFF AND MUL OR SWAP1 SSTORE POP POP JUMP JUMPDEST PUSH1 0x0 PUSH1 0x40 MLOAD SWAP1 POP SWAP1 JUMP JUMPDEST PUSH1 0x0 DUP1 REVERT JUMPDEST PUSH1 0x0 DUP1 REVERT JUMPDEST PUSH1 0x0 DUP2 SWAP1 POP SWAP2 SWAP1 POP JUMP JUMPDEST PUSH2 0x489 DUP2 PUSH2 0x476 JUMP JUMPDEST DUP2 EQ PUSH2 0x494 JUMPI PUSH1 0x0 DUP1 REVERT JUMPDEST POP JUMP JUMPDEST PUSH1 0x0 DUP2 CALLDATALOAD SWAP1 POP PUSH2 0x4A6 DUP2 PUSH2 0x480 JUMP JUMPDEST SWAP3 SWAP2 POP POP JUMP JUMPDEST PUSH1 0x0 PUSH1 0x20 DUP3 DUP5 SUB SLT ISZERO PUSH2 0x4C2 JUMPI PUSH2 0x4C1 PUSH2 0x46C JUMP JUMPDEST JUMPDEST PUSH1 0x0 PUSH2 0x4D0 DUP5 DUP3 DUP6 ADD PUSH2 0x497 JUMP JUMPDEST SWAP2 POP POP SWAP3 SWAP2 POP POP JUMP JUMPDEST PUSH1 0x0 DUP2 MLOAD SWAP1 POP SWAP2 SWAP1 POP JUMP JUMPDEST PUSH1 0x0 DUP3 DUP3 MSTORE PUSH1 0x20 DUP3 ADD SWAP1 POP SWAP3 SWAP2 POP POP JUMP JUMPDEST PUSH1 0x0 JUMPDEST DUP4 DUP2 LT ISZERO PUSH2 0x513 JUMPI DUP1 DUP3 ADD MLOAD DUP2 DUP5 ADD MSTORE PUSH1 0x20 DUP2 ADD SWAP1 POP PUSH2 0x4F8 JUMP JUMPDEST PUSH1 0x0 DUP5 DUP5 ADD MSTORE POP POP POP POP JUMP JUMPDEST PUSH1 0x0 PUSH1 0x1F NOT PUSH1 0x1F DUP4 ADD AND SWAP1 POP SWAP2 SWAP1 POP JUMP JUMPDEST PUSH1 0x0 PUSH2 0x53B DUP3 PUSH2 0x4D9 JUMP JUMPDEST PUSH2 0x545 DUP2 DUP6 PUSH2 0x4E4 JUMP JUMPDEST SWAP4 POP PUSH2 0x555 DUP2 DUP6 PUSH1 0x20 DUP7 ADD PUSH2 0x4F5 JUMP JUMPDEST PUSH2 0x55E DUP2 PUSH2 0x51F JUMP JUMPDEST DUP5 ADD SWAP2 POP POP SWAP3 SWAP2 POP POP JUMP JUMPDEST PUSH1 0x0 PUSH1 0x20 DUP3 ADD SWAP1 POP DUP2 DUP2 SUB PUSH1 0x0 DUP4 ADD MSTORE PUSH2 0x583 DUP2 DUP5 PUSH2 0x530 JUMP JUMPDEST SWAP1 POP SWAP3 SWAP2 POP POP JUMP JUMPDEST PUSH1 0x0 DUP1 REVERT JUMPDEST PUSH1 0x0 DUP1 REVERT JUMPDEST PUSH32 0x4E487B7100000000000000000000000000000000000000000000000000000000 PUSH1 0x0 MSTORE PUSH1 0x41 PUSH1 0x4 MSTORE PUSH1 0x24 PUSH1 0x0 REVERT JUMPDEST PUSH2 0x5CD DUP3 PUSH2 0x51F JUMP JUMPDEST DUP2 ADD DUP2 DUP2 LT PUSH8 0xFFFFFFFFFFFFFFFF DUP3 GT OR ISZERO PUSH2 0x5EC JUMPI PUSH2 0x5EB PUSH2 0x595 JUMP JUMPDEST JUMPDEST DUP1 PUSH1 0x40 MSTORE POP POP POP JUMP JUMPDEST PUSH1 0x0 PUSH2 0x5FF PUSH2 0x462 JUMP JUMPDEST SWAP1 POP PUSH2 0x60B DUP3 DUP3 PUSH2 0x5C4 JUMP JUMPDEST SWAP2 SWAP1 POP JUMP JUMPDEST PUSH1 0x0 PUSH8 0xFFFFFFFFFFFFFFFF DUP3 GT ISZERO PUSH2 0x62B JUMPI PUSH2 0x62A PUSH2 0x595 JUMP JUMPDEST JUMPDEST PUSH2 0x634 DUP3 PUSH2 0x51F JUMP JUMPDEST SWAP1 POP PUSH1 0x20 DUP2 ADD SWAP1 POP SWAP2 SWAP1 POP JUMP JUMPDEST DUP3 DUP2 DUP4 CALLDATACOPY PUSH1 0x0 DUP4 DUP4 ADD MSTORE POP POP POP JUMP JUMPDEST PUSH1 0x0 PUSH2 0x663 PUSH2 0x65E DUP5 PUSH2 0x610 JUMP JUMPDEST PUSH2 0x5F5 JUMP JUMPDEST SWAP1 POP DUP3 DUP2 MSTORE PUSH1 0x20 DUP2 ADD DUP5 DUP5 DUP5 ADD GT ISZERO PUSH2 0x67F JUMPI PUSH2 0x67E PUSH2 0x590 JUMP JUMPDEST JUMPDEST PUSH2 0x68A DUP5 DUP3 DUP6 PUSH2 0x641 JUMP JUMPDEST POP SWAP4 SWAP3 POP POP POP JUMP JUMPDEST PUSH1 0x0 DUP3 PUSH1 0x1F DUP4 ADD SLT PUSH2 0x6A7 JUMPI PUSH2 0x6A6 PUSH2 0x58B JUMP JUMPDEST JUMPDEST DUP2 CALLDATALOAD PUSH2 0x6B7 DUP5 DUP3 PUSH1 0x20 DUP7 ADD PUSH2 0x650 JUMP JUMPDEST SWAP2 POP POP SWAP3 SWAP2 POP POP JUMP JUMPDEST PUSH1 0x0 DUP1 PUSH1 0x0 PUSH1 0x60 DUP5 DUP7 SUB SLT ISZERO PUSH2 0x6D9 JUMPI PUSH2 0x6D8 PUSH2 0x46C JUMP JUMPDEST JUMPDEST PUSH1 0x0 PUSH2 0x6E7 DUP7 DUP3 DUP8 ADD PUSH2 0x497 JUMP JUMPDEST SWAP4 POP POP PUSH1 0x20 DUP5 ADD CALLDATALOAD PUSH8 0xFFFFFFFFFFFFFFFF DUP2 GT ISZERO PUSH2 0x708 JUMPI PUSH2 0x707 PUSH2 0x471 JUMP JUMPDEST JUMPDEST PUSH2 0x714 DUP7 DUP3 DUP8 ADD PUSH2 0x692 JUMP JUMPDEST SWAP3 POP POP PUSH1 0x40 DUP5 ADD CALLDATALOAD PUSH8 0xFFFFFFFFFFFFFFFF DUP2 GT ISZERO PUSH2 0x735 JUMPI PUSH2 0x734 PUSH2 0x471 JUMP JUMPDEST JUMPDEST PUSH2 0x741 DUP7 DUP3 DUP8 ADD PUSH2 0x692 JUMP JUMPDEST SWAP2 POP POP SWAP3 POP SWAP3 POP SWAP3 JUMP JUMPDEST PUSH1 0x0 PUSH1 0x20 DUP3 DUP5 SUB SLT ISZERO PUSH2 0x761 JUMPI PUSH2 0x760 PUSH2 0x46C JUMP JUMPDEST JUMPDEST PUSH1 0x0 DUP3 ADD CALLDATALOAD PUSH8 0xFFFFFFFFFFFFFFFF DUP2 GT ISZERO PUSH2 0x77F JUMPI PUSH2 0x77E PUSH2 0x471 JUMP JUMPDEST JUMPDEST PUSH2 0x78B DUP5 DUP3 DUP6 ADD PUSH2 0x692 JUMP JUMPDEST SWAP2 POP POP SWAP3 SWAP2 POP POP JUMP JUMPDEST PUSH1 0x0 PUSH20 0xFFFFFFFFFFFFFFFFFFFFFFFFFFFFFFFFFFFFFFFF DUP3 AND SWAP1 POP SWAP2 SWAP1 POP JUMP JUMPDEST PUSH1 0x0 PUSH2 0x7BF DUP3 PUSH2 0x794 JUMP JUMPDEST SWAP1 POP SWAP2 SWAP1 POP JUMP JUMPDEST PUSH2 0x7CF DUP2 PUSH2 0x7B4 JUMP JUMPDEST DUP2 EQ PUSH2 0x7DA JUMPI PUSH1 0x0 DUP1 REVERT JUMPDEST POP JUMP JUMPDEST PUSH1 0x0 DUP2 CALLDATALOAD SWAP1 POP PUSH2 0x7EC DUP2 PUSH2 0x7C6 JUMP JUMPDEST SWAP3 SWAP2 POP POP JUMP JUMPDEST PUSH1 0x0 PUSH1 0x20 DUP3 DUP5 SUB SLT ISZERO PUSH2 0x808 JUMPI PUSH2 0x807 PUSH2 0x46C JUMP JUMPDEST JUMPDEST PUSH1 0x0 PUSH2 0x816 DUP5 DUP3 DUP6 ADD PUSH2 0x7DD JUMP JUMPDEST SWAP2 POP POP SWAP3 SWAP2 POP POP JUMP JUMPDEST PUSH32 0x4E487B7100000000000000000000000000000000000000000000000000000000 PUSH1 0x0 MSTORE PUSH1 0x22 PUSH1 0x4 MSTORE PUSH1 0x24 PUSH1 0x0 REVERT JUMPDEST PUSH1 0x0 PUSH1 0x2 DUP3 DIV SWAP1 POP PUSH1 0x1 DUP3 AND DUP1 PUSH2 0x866 JUMPI PUSH1 0x7F DUP3 AND SWAP2 POP JUMPDEST PUSH1 0x20 DUP3 LT DUP2 SUB PUSH2 0x879 JUMPI PUSH2 0x878 PUSH2 0x81F JUMP JUMPDEST JUMPDEST POP SWAP2 SWAP1 POP JUMP JUMPDEST PUSH1 0x0 DUP2 SWAP1 POP DUP2 PUSH1 0x0 MSTORE PUSH1 0x20 PUSH1 0x0 KECCAK256 SWAP1 POP SWAP2 SWAP1 POP JUMP JUMPDEST PUSH1 0x0 PUSH1 0x20 PUSH1 0x1F DUP4 ADD DIV SWAP1 POP SWAP2 SWAP1 POP JUMP JUMPDEST PUSH1 0x0 DUP3 DUP3 SHL SWAP1 POP SWAP3 SWAP2 POP POP JUMP JUMPDEST PUSH1 0x0 PUSH1 0x8 DUP4 MUL PUSH2 0x8E1 PUSH32 0xFFFFFFFFFFFFFFFFFFFFFFFFFFFFFFFFFFFFFFFFFFFFFFFFFFFFFFFFFFFFFFFF DUP3 PUSH2 0x8A4 JUMP JUMPDEST PUSH2 0x8EB DUP7 DUP4 PUSH2 0x8A4 JUMP JUMPDEST SWAP6 POP DUP1 NOT DUP5 AND SWAP4 POP DUP1 DUP7 AND DUP5 OR SWAP3 POP POP POP SWAP4 SWAP3 POP POP POP JUMP JUMPDEST PUSH1 0x0 DUP2 SWAP1 POP SWAP2 SWAP1 POP JUMP JUMPDEST PUSH1 0x0 PUSH2 0x928 PUSH2 0x923 PUSH2 0x91E DUP5 PUSH2 0x476 JUMP JUMPDEST PUSH2 0x903 JUMP JUMPDEST PUSH2 0x476 JUMP JUMPDEST SWAP1 POP SWAP2 SWAP1 POP JUMP JUMPDEST PUSH1 0x0 DUP2 SWAP1 POP SWAP2 SWAP1 POP JUMP JUMPDEST PUSH2 0x942 DUP4 PUSH2 0x90D JUMP JUMPDEST PUSH2 0x956 PUSH2 0x94E DUP3 PUSH2 0x92F JUMP JUMPDEST DUP5 DUP5 SLOAD PUSH2 0x8B1 JUMP JUMPDEST DUP3 SSTORE POP POP POP POP JUMP JUMPDEST PUSH1 0x0 SWAP1 JUMP JUMPDEST PUSH2 0x96B PUSH2 0x95E JUMP JUMPDEST PUSH2 0x976 DUP2 DUP5 DUP5 PUSH2 0x939 JUMP JUMPDEST POP POP POP JUMP JUMPDEST JUMPDEST DUP2 DUP2 LT ISZERO PUSH2 0x99A JUMPI PUSH2 0x98F PUSH1 0x0 DUP3 PUSH2 0x963 JUMP JUMPDEST PUSH1 0x1 DUP2 ADD SWAP1 POP PUSH2 0x97C JUMP JUMPDEST POP POP JUMP JUMPDEST PUSH1 0x1F DUP3 GT ISZERO PUSH2 0x9DF JUMPI PUSH2 0x9B0 DUP2 PUSH2 0x87F JUMP JUMPDEST PUSH2 0x9B9 DUP5 PUSH2 0x894 JUMP JUMPDEST DUP2 ADD PUSH1 0x20 DUP6 LT ISZERO PUSH2 0x9C8 JUMPI DUP2 SWAP1 POP JUMPDEST PUSH2 0x9DC PUSH2 0x9D4 DUP6 PUSH2 0x894 JUMP JUMPDEST DUP4 ADD DUP3 PUSH2 0x97B JUMP JUMPDEST POP POP JUMPDEST POP POP POP JUMP JUMPDEST PUSH1 0x0 DUP3 DUP3 SHR SWAP1 POP SWAP3 SWAP2 POP POP JUMP JUMPDEST PUSH1 0x0 PUSH2 0xA02 PUSH1 0x0 NOT DUP5 PUSH1 0x8 MUL PUSH2 0x9E4 JUMP JUMPDEST NOT DUP1 DUP4 AND SWAP2 POP POP SWAP3 SWAP2 POP POP JUMP JUMPDEST PUSH1 0x0 PUSH2 0xA1B DUP4 DUP4 PUSH2 0x9F1 JUMP JUMPDEST SWAP2 POP DUP3 PUSH1 0x2 MUL DUP3 OR SWAP1 POP SWAP3 SWAP2 POP POP JUMP JUMPDEST PUSH2 0xA34 DUP3 PUSH2 0x4D9 JUMP JUMPDEST PUSH8 0xFFFFFFFFFFFFFFFF DUP2 GT ISZERO PUSH2 0xA4D JUMPI PUSH2 0xA4C PUSH2 0x595 JUMP JUMPDEST JUMPDEST PUSH2 0xA57 DUP3 SLOAD PUSH2 0x84E JUMP JUMPDEST PUSH2 0xA62 DUP3 DUP3 DUP6 PUSH2 0x99E JUMP JUMPDEST PUSH1 0x0 PUSH1 0x20 SWAP1 POP PUSH1 0x1F DUP4 GT PUSH1 0x1 DUP2 EQ PUSH2 0xA95 JUMPI PUSH1 0x0 DUP5 ISZERO PUSH2 0xA83 JUMPI DUP3 DUP8 ADD MLOAD SWAP1 POP JUMPDEST PUSH2 0xA8D DUP6 DUP3 PUSH2 0xA0F JUMP JUMPDEST DUP7 SSTORE POP PUSH2 0xAF5 JUMP JUMPDEST PUSH1 0x1F NOT DUP5 AND PUSH2 0xAA3 DUP7 PUSH2 0x87F JUMP JUMPDEST PUSH1 0x0 JUMPDEST DUP3 DUP2 LT ISZERO PUSH2 0xACB JUMPI DUP5 DUP10 ADD MLOAD DUP3 SSTORE PUSH1 0x1 DUP3 ADD SWAP2 POP PUSH1 0x20 DUP6 ADD SWAP5 POP PUSH1 0x20 DUP2 ADD SWAP1 POP PUSH2 0xAA6 JUMP JUMPDEST DUP7 DUP4 LT ISZERO PUSH2 0xAE8 JUMPI DUP5 DUP10 ADD MLOAD PUSH2 0xAE4 PUSH1 0x1F DUP10 AND DUP3 PUSH2 0x9F1 JUMP JUMPDEST DUP4 SSTORE POP JUMPDEST PUSH1 0x1 PUSH1 0x2 DUP9 MUL ADD DUP9 SSTORE POP POP POP JUMPDEST POP POP POP POP POP POP JUMP JUMPDEST PUSH2 0xB06 DUP2 PUSH2 0x476 JUMP JUMPDEST DUP3 MSTORE POP POP JUMP JUMPDEST PUSH1 0x0 PUSH1 0x60 DUP3 ADD SWAP1 POP PUSH2 0xB21 PUSH1 0x0 DUP4 ADD DUP7 PUSH2 0xAFD JUMP JUMPDEST DUP2 DUP2 SUB PUSH1 0x20 DUP4 ADD MSTORE PUSH2 0xB33 DUP2 DUP6 PUSH2 0x530 JUMP JUMPDEST SWAP1 POP DUP2 DUP2 SUB PUSH1 0x40 DUP4 ADD MSTORE PUSH2 0xB47 DUP2 DUP5 PUSH2 0x530 JUMP JUMPDEST SWAP1 POP SWAP5 SWAP4 POP POP POP POP JUMP JUMPDEST PUSH1 0x0 DUP2 SWAP1 POP SWAP3 SWAP2 POP POP JUMP JUMPDEST PUSH32 0x4D6573736167653D000000000000000000000000000000000000000000000000 PUSH1 0x0 DUP3 ADD MSTORE POP JUMP JUMPDEST PUSH1 0x0 PUSH2 0xB92 PUSH1 0x8 DUP4 PUSH2 0xB51 JUMP JUMPDEST SWAP2 POP PUSH2 0xB9D DUP3 PUSH2 0xB5C JUMP JUMPDEST PUSH1 0x8 DUP3 ADD SWAP1 POP SWAP2 SWAP1 POP JUMP JUMPDEST PUSH1 0x0 PUSH2 0xBB3 DUP3 PUSH2 0x4D9 JUMP JUMPDEST PUSH2 0xBBD DUP2 DUP6 PUSH2 0xB51 JUMP JUMPDEST SWAP4 POP PUSH2 0xBCD DUP2 DUP6 PUSH1 0x20 DUP7 ADD PUSH2 0x4F5 JUMP JUMPDEST DUP1 DUP5 ADD SWAP2 POP POP SWAP3 SWAP2 POP POP JUMP JUMPDEST PUSH1 0x0 PUSH2 0xBE4 DUP3 PUSH2 0xB85 JUMP JUMPDEST SWAP2 POP PUSH2 0xBF0 DUP3 DUP5 PUSH2 0xBA8 JUMP JUMPDEST SWAP2 POP DUP2 SWAP1 POP SWAP3 SWAP2 POP POP JUMP JUMPDEST PUSH32 0x4E487B7100000000000000000000000000000000000000000000000000000000 PUSH1 0x0 MSTORE PUSH1 0x32 PUSH1 0x4 MSTORE PUSH1 0x24 PUSH1 0x0 REVERT JUMPDEST PUSH32 0x636F777361793A76302E302E3100000000000000000000000000000000000000 PUSH1 0x0 DUP3 ADD MSTORE POP JUMP JUMPDEST PUSH1 0x0 PUSH2 0xC60 PUSH1 0xD DUP4 PUSH2 0x4E4 JUMP JUMPDEST SWAP2 POP PUSH2 0xC6B DUP3 PUSH2 0xC2A JUMP JUMPDEST PUSH1 0x20 DUP3 ADD SWAP1 POP SWAP2 SWAP1 POP JUMP JUMPDEST PUSH1 0x0 DUP2 MLOAD SWAP1 POP SWAP2 SWAP1 POP JUMP JUMPDEST PUSH1 0x0 DUP3 DUP3 MSTORE PUSH1 0x20 DUP3 ADD SWAP1 POP SWAP3 SWAP2 POP POP JUMP JUMPDEST PUSH1 0x0 DUP2 SWAP1 POP PUSH1 0x20 DUP3 ADD SWAP1 POP SWAP2 SWAP1 POP JUMP JUMPDEST PUSH1 0x0 DUP3 DUP3 MSTORE PUSH1 0x20 DUP3 ADD SWAP1 POP SWAP3 SWAP2 POP POP JUMP JUMPDEST PUSH1 0x0 PUSH2 0xCBE DUP3 PUSH2 0x4D9 JUMP JUMPDEST PUSH2 0xCC8 DUP2 DUP6 PUSH2 0xCA2 JUMP JUMPDEST SWAP4 POP PUSH2 0xCD8 DUP2 DUP6 PUSH1 0x20 DUP7 ADD PUSH2 0x4F5 JUMP JUMPDEST PUSH2 0xCE1 DUP2 PUSH2 0x51F JUMP JUMPDEST DUP5 ADD SWAP2 POP POP SWAP3 SWAP2 POP POP JUMP JUMPDEST PUSH1 0x0 PUSH2 0xCF8 DUP4 DUP4 PUSH2 0xCB3 JUMP JUMPDEST SWAP1 POP SWAP3 SWAP2 POP POP JUMP JUMPDEST PUSH1 0x0 PUSH1 0x20 DUP3 ADD SWAP1 POP SWAP2 SWAP1 POP JUMP JUMPDEST PUSH1 0x0 PUSH2 0xD18 DUP3 PUSH2 0xC76 JUMP JUMPDEST PUSH2 0xD22 DUP2 DUP6 PUSH2 0xC81 JUMP JUMPDEST SWAP4 POP DUP4 PUSH1 0x20 DUP3 MUL DUP6 ADD PUSH2 0xD34 DUP6 PUSH2 0xC92 JUMP JUMPDEST DUP1 PUSH1 0x0 JUMPDEST DUP6 DUP2 LT ISZERO PUSH2 0xD70 JUMPI DUP5 DUP5 SUB DUP10 MSTORE DUP2 MLOAD PUSH2 0xD51 DUP6 DUP3 PUSH2 0xCEC JUMP JUMPDEST SWAP5 POP PUSH2 0xD5C DUP4 PUSH2 0xD00 JUMP JUMPDEST SWAP3 POP PUSH1 0x20 DUP11 ADD SWAP10 POP POP PUSH1 0x1 DUP2 ADD SWAP1 POP PUSH2 0xD38 JUMP JUMPDEST POP DUP3 SWAP8 POP DUP8 SWAP6 POP POP POP POP POP POP SWAP3 SWAP2 POP POP JUMP JUMPDEST PUSH2 0xD8B DUP2 PUSH2 0x7B4 JUMP JUMPDEST DUP3 MSTORE POP POP JUMP JUMPDEST PUSH1 0x0 PUSH1 0x60 DUP3 ADD SWAP1 POP DUP2 DUP2 SUB PUSH1 0x0 DUP4 ADD MSTORE PUSH2 0xDAA DUP2 PUSH2 0xC53 JUMP JUMPDEST SWAP1 POP DUP2 DUP2 SUB PUSH1 0x20 DUP4 ADD MSTORE PUSH2 0xDBE DUP2 DUP6 PUSH2 0xD0D JUMP JUMPDEST SWAP1 POP PUSH2 0xDCD PUSH1 0x40 DUP4 ADD DUP5 PUSH2 0xD82 JUMP JUMPDEST SWAP4 SWAP3 POP POP POP JUMP JUMPDEST PUSH1 0x0 DUP2 MLOAD SWAP1 POP PUSH2 0xDE3 DUP2 PUSH2 0x480 JUMP JUMPDEST SWAP3 SWAP2 POP POP JUMP JUMPDEST PUSH1 0x0 PUSH1 0x20 DUP3 DUP5 SUB SLT ISZERO PUSH2 0xDFF JUMPI PUSH2 0xDFE PUSH2 0x46C JUMP JUMPDEST JUMPDEST PUSH1 0x0 PUSH2 0xE0D DUP5 DUP3 DUP6 ADD PUSH2 0xDD4 JUMP JUMPDEST SWAP2 POP POP SWAP3 SWAP2 POP POP JUMP JUMPDEST PUSH1 0x0 PUSH1 0x40 DUP3 ADD SWAP1 POP PUSH2 0xE2B PUSH1 0x0 DUP4 ADD DUP6 PUSH2 0xAFD JUMP JUMPDEST DUP2 DUP2 SUB PUSH1 0x20 DUP4 ADD MSTORE PUSH2 0xE3D DUP2 DUP5 PUSH2 0x530 JUMP JUMPDEST SWAP1 POP SWAP4 SWAP3 POP POP POP JUMP JUMPDEST PUSH32 0x4A6F62206D616E61676572206164647265737300000000000000000000000000 PUSH1 0x0 DUP3 ADD MSTORE POP JUMP JUMPDEST PUSH1 0x0 PUSH2 0xE7C PUSH1 0x13 DUP4 PUSH2 0x4E4 JUMP JUMPDEST SWAP2 POP PUSH2 0xE87 DUP3 PUSH2 0xE46 JUMP JUMPDEST PUSH1 0x20 DUP3 ADD SWAP1 POP SWAP2 SWAP1 POP JUMP JUMPDEST PUSH1 0x0 PUSH1 0x20 DUP3 ADD SWAP1 POP DUP2 DUP2 SUB PUSH1 0x0 DUP4 ADD MSTORE PUSH2 0xEAB DUP2 PUSH2 0xE6F JUMP JUMPDEST SWAP1 POP SWAP2 SWAP1 POP JUMP INVALID LOG2 PUSH5 0x6970667358 0x22 SLT KECCAK256 DUP1 NUMBER MULMOD LT PUSH5 0x3890F3196E 0xE9 PUSH17 0x8E98116720BD349760D8FCE0AC477F2AD8 0x4E RETURNDATASIZE DUP6 PUSH5 0x736F6C6343 STOP ADDMOD XOR STOP CALLER "
        },
        "methodIdentifiers": {
          "getJobResult(uint256)": "3b89dcab",
          "runCowsay(string)": "cabc00d1",
          "setJobManagerAddress(address)": "ec67df4c",
          "submitResults(uint256,string,string)": "6c0f1f58"
        }
      }
    }
  }
}